:020000040800F2
:10000000D8890020F90E0108110B0108130B010813
:10001000150B0108170B0108190B0108000000005F
:100020000000000000000000000000002DE90008B2
:100030001B0B010800000000D5E8000875B000089F
:10004000290F01082D0F0108310F0108350F010894
:10005000390F01083D0F0108410F0108450F010844
:10006000490F01084D0F0108510F01081D0B010830
:10007000230B0108290B0108550F0108590F01082E
:100080005D0F0108610F01082F0B0108650F0108C2
:10009000690F01086D0F0108710F0108750F010844
:1000A000790F0108410B01087D0F0108810F01083C
:1000B000850F0108470B01084D0B0108890F010846
:1000C0008D0F0108910F0108950F0108990F010884
:1000D0009D0F0108530B0108A10F0108A50F01088E
:1000E000590B0108A90F010800000000AD0F01081D
:1000F000B10F0108B50F0108B90F0108BD0F0108C4
:10010000C10F0108C50F0108C90F01086F0B0108D5
:10011000CD0F0108D10F0108750B0108D50F01089B
:10012000870B01088D0B0108D90F0108DD0F0108AD
:10013000E10F0108E50F0108E90F0108ED0F0108C3
:1001400000000000000000000000000000000000AF
:10015000F10F0108F50F0108F90F0108930B0108D1
:10016000FD0F010801100108051001080910010820
:100170000D100108111001081510010819100108CF
:100180001D1001082110010825100108990B010814
:10019000291001082D10010831100108351001083F
:1001A000391001083D1001084110010845100108EF
:1001B000491001084D10010851100108551001089F
:1001C000591001085D10010861100108651001084F
:1001D000691001086D1001087110010875100108FF
:1001E000791001087D1001088110010885100108AF
:1001F000891001088D10010891100108951001085F
:10020000991001089D100108A1100108A51001080E
:10021000A9100108AD100108B1100108B5100108BE
:10022000B9100108BD100108C1100108000000004C
:100230009F0B0108C510010800000000C91001084B
:10024000CD100108D1100108D5100108D9100108FE
:10025000DD100108E1100108E5100108E9100108AE
:10026000ED100108F1100108F5100108F91001085E
:10027000FD1001080111010805110108000000002E
:10028000091101080D1101081111010800000000F9
:10029000000000001511010800000000000000002F
:1002A0000000000000000404040404000004000036
:1002B00014140A00000000000000000000000A0AF8
:1002C0001F0A0A1F0A0A000000040E1505060C1476
:1002D000150E0400000012150D152E2C2A12000018
:1002E0000000040A0A361515291600000202010052
:1002F00000000000000000001008080404040404CA
:100300000808100002040408080808080404020091
:1003100000000004150E0E15040000000000000887
:10032000083E080800000000000000000000000077
:100330000202010000000000003F00000000000079
:10034000000000000000000000020000002010106B
:10035000080804040202010000000E11111111111D
:10036000110E00000000040604040404040E000042
:1003700000000E1111080402011F000000000E1100
:10038000100C1010110E00000000080C0C0A091FC0
:10039000081C000000001F01010F1110110E0000C9
:1003A00000000C12010D1311110E000000001E10B0
:1003B000080804040404000000000E11110E1111BD
:1003C000110E000000000E11111916100906000090
:1003D0000000000004000000000400000000000015
:1003E00000040000000404000000100804020204DD
:1003F00008100000000000003F003F000000000067
:1004000000000204081010080402000000000E1191
:10041000110804040004000000001C22292D2D1DD9
:10042000221C0000000004040C0A0A1E1233000003
:1004300000000F12120E1212120F000000001E1107
:1004400001010101110E000000000F121212121220
:10045000120F000000001F120A0E0A02121F0000F5
:1004600000001F120A0E0A020207000000001C1200
:1004700001013911120C000000003312121E121279
:100480001233000000001F0404040404041F0000D1
:1004900000003E080808080808080907000037128D
:1004A0000A060A12123700000000070202020202C6
:1004B000223F000000003B1B1B1B151515350000DB
:1004C00000003B1216161A1A1217000000000E1137
:1004D00011111111110E000000000F12120E020274
:1004E0000207000000000E1111111117190E18005B
:1004F00000000F12120E0A121237000000001E1127
:1005000001060810110F000000001F150404040468
:10051000040E00000000331212121212120C00001E
:1005200000003312120A0A0C040400000000151522
:1005300015150E0A0A0A000000001B0A0A04040A24
:100540000A1B000000001B0A0A0A0404040E000033
:1005500000001F0908040402121F00001C04040408
:100560000404040404041C00000202040404080837
:10057000081010000E0808080808080808080E00EF
:10058000040A00000000000000000000000000005D
:10059000000000000000003F020400000000000016
:1005A0000000000000000000000C121C123C0000C3
:1005B00000030202020E1212120E000000000000E0
:1005C000001C1202120C000000181010101C121255
:1005D000123C000000000000000C121E021C000073
:1005E00000182404041E0404041E0000000000007F
:1005F000003C120C021C221C00030202020E12120A
:10060000123700000004040000060404040E000079
:1006100000080800000C0808080808070003020288
:10062000021A0A060A130000000704040404040462
:10063000041F000000000000000F15151515000034
:1006400000000000000F121212370000000000002E
:10065000000C1212120C000000000000000F121219
:10066000120E020700000000001C1212121C1038AB
:1006700000000000001B060202070000000000004E
:10068000001E020C101E000000000004041E0404E2
:10069000041C000000000000001B1212123C0000AD
:1006A00000000000001B0A0A040400000000000013
:1006B0000015150E0A0A000000000000001B0A04C5
:1006C0000A1B000000000000003312120C08040393
:1006D00000000000001E0804041E0000180808089E
:1006E000080C08080808180008080808080808087E
:1006F00008080808060404040408040404040600A6
:1007000016090000000000000000000000000000CA
:1007100000000000000000000000000000000008D1
:1007200008080808080800001818000000486C2491
:100730001200000000000000000000000000002483
:1007400024247F1212127F12121200000000081CD3
:100750002A2A0A0C1828282A2A1C08080000002225
:10076000251515152A585454542200000000000C79
:100770001212120A76252911916E00000006060455
:1007800003000000000000000000000000402010F6
:10079000100808080808081010204000000204088B
:1007A00008101010101010080804020000000000CB
:1007B00008086B1C1C6B080800000000000000000B
:1007C000080808087F08080808000000000000006A
:1007D0000000000000000000060604030000000006
:1007E00000000000FE00000000000000000000000B
:1007F000000000000000000006060000000080402D
:100800004020201010080804040202000000001814
:1008100024424242424242422418000000000008A2
:100820000E08080808080808083E00000000003C00
:100830004242422020100804427E00000000003C9A
:100840004242201820404042221C000000000020AC
:100850003028242422227E20207800000000007E00
:100860000202021A26404042221C0000000000380A
:100870002402021A26424242241800000000007E90
:100880002222101008080808080800000000003C98
:100890004242422418244242423C00000000001818
:1008A0002442424264584040241C000000000000E2
:1008B00000001818000000001818000000000000D8
:1008C00000000008000000000008080400000040CC
:1008D000201008040204081020400000000000005E
:1008E00000007F0000007F00000000000000000208
:1008F0000408102040201008040200000000003C02
:100900004242464020101000181800000000001C51
:10091000225A555555552D42221C00000000000852
:1009200008181414243C224242E700000000001F73
:100930002222221E22424242221F00000000007C8E
:100940004242010101010142221C00000000001F7F
:100950002242424242424242221F00000000003F27
:100960004212121E12120242423F00000000003FDB
:100970004212121E12120202020700000000003C86
:100980002222010101712122221C0000000000E747
:10099000424242427E42424242E700000000003EA4
:1009A0000808080808080808083E00000000007C45
:1009B00010101010101010101010110F0000007700
:1009C00022120A0E0A1212222277000000000007EB
:1009D0000202020202020202427F000000000077CF
:1009E000363636362A2A2A2A2A6B0000000000E30F
:1009F00046464A4A52525262624700000000001CBA
:100A00002241414141414141221C00000000003F80
:100A1000424242423E020202020700000000001C65
:100A20002241414141414D53321C60000000003FD2
:100A30004242423E1212222242C700000000007CC5
:100A40004242020418204042423E00000000007F63
:100A50004908080808080808081C0000000000E70A
:100A60004242424242424242423C0000000000E711
:100A70004242222424141418080800000000006BCD
:100A8000494949495555362222220000000000E715
:100A9000422424181818242442E70000000000779C
:100AA0002222141408080808081C00000000007E18
:100AB0002120101008040442423F0000007808087A
:100AC000080808080808080808087800000002025A
:100AD000040408080810102020204040001E1010B8
:100AE000101010101010101010101E0000384400CC
:100AF00000000000000000000000000000000000F6
:100B00000000000000000000000000FF00060800D8
:100B100000000000000000000000000000000000D5
:100B20000000003C4278444242FC00000000000308
:100B30000202021A26424242261A00000000000069
:100B40000000003844020202443800000000006047
:100B5000404040784442424264D800000000000017
:100B60000000003C427E0202423C0000000000F017
:100B70008808087E08080808083E000000000000F9
:100B80000000007C22221C023C42423C0000000388
:100B90000202023A4642424242E700000000000CD4
:100BA0000C00000E08080808083E00000000003095
:100BB00030000038202020202020221E00000003CA
:100BC00002020272120A1612227700000000000EC2
:100BD0000808080808080808083E0000000000008F
:100BE0000000007F9292929292B7000000000000F5
:100BF0000000003B4642424242E700000000000085
:100C00000000003C42424242423C00000000000022
:100C10000000001B26424242221E02070000000084
:100C20000000007844424242447840E00000000066
:100C3000000000774C040404041F000000000000C2
:100C40000000007C42023C40423E000000000000E8
:100C50000008083E080808080830000000000000EE
:100C6000000000634242424262DC000000000000DB
:100C7000000000E7422424140808000000000000DF
:100C8000000000EB494955552222000000000000F9
:100C90000000007624181818246E000000000000E0
:100CA000000000E742242414180808070000000090
:100CB0000000007E22100808447E000000C02020B2
:100CC00020202010202020202020C00010101010F4
:100CD000101010101010101010101010000608083E
:100CE0000808081008080808080806000C32C200A6
:100CF00000000000000000000000000000000000F4
:100D000000000000000000000000000000000000E3
:100D100000000000000000000000000000000000D3
:100D200000000000000000000000000000000000C3
:100D30000000000060006000600060006000600073
:100D400060004000200020002000000000000000A3
:100D50006000600060000000000000000000000073
:100D6000600660063003980188004400000000001F
:100D70000000000000000000000000000000000073
:100D80000000000000000000000000000000000063
:100D9000000000001002100210021002FE07FE0701
:100DA00008020801080108010801FE07FE07040106
:100DB0000401040104010000000000000000000024
:100DC000000040004000F00158034C03CC034C00ED
:100DD00058007000E000C001C00140034C035C03F8
:100DE0004C034801F00040004000000000000000FB
:100DF000000000000E010A019100910091005100D5
:100E000051003A00AE03A0025004500448044804C4
:100E10004804840284030000000000000000000079
:100E20000000000038006C006C006C006C006C006E
:100E30002C0098071C011A01330133016301E30000
:100E4000C308C6093C0700000000000000000000C5
:100E50000C001C001000100008000400000000003E
:100E60000000000000000000000000000000000082
:100E70000000000000000000000000000000000072
:100E800000040002000180008000400040002000BB
:100E90002000200020002000200020004000400012
:100EA000800080000001000200040000000000003B
:100EB0000200040008001000100020002000400084
:100EC0004000400040004000400040002000200062
:100ED00010001000080004000200000000000000E4
:100EE00000000000000000004000C0004000460C70
:100EF0004E0FD001F0015E0F460C40004000400054
:100F000000000000000000000000000000000000E1
:100F10000000000000000000000040004000400011
:100F200040004000FE0F40004000400040004000F4
:100F300000000000000000000000000000000000B1
:100F400000000000000000000000000000000000A1
:100F50000000000000000000000000000000000091
:100F60000C001C001000100008000400000000002D
:100F70000000000000000000000000000000000071
:100F800000000000FE07000000000000000000005C
:100F90000000000000000000000000000000000051
:100FA0000000000000000000000000000000000041
:100FB0000000000000000000000000000000000031
:100FC0001C001C001C0000000000000000000000CD
:100FD0000004000600020003000100018000800000
:100FE00040004000600020002000100010000800B9
:100FF00008000C00040006000200000000000000D1
:10100000000000000000F00098010C030C0306062D
:1010100006060606060606060606060606060C036D
:101020000C039801F0000000000000000000000028
:1010300000000000000040007C00600060006000D4
:1010400060006000600060006000600060006000A0
:1010500060006000FC0300000000000000000000D1
:10106000000000000000F8008401020306030603EC
:10107000000300018001C000600020001000080291
:1010800004020602FE030000000000000000000051
:101090000000000000007800C60086018601800183
:1010A0008001C000700080010001000300030603FE
:1010B00006038601F80000000000000000000000A8
:1010C00000000000000080018001C001A001A0011B
:1010D00090018801880184018201FE0F8001800156
:1010E00080018001E0070000000000000000000017
:1010F000000000000000FC030400040004000400E1
:101100000400F4008C01040300030003060306033B
:1011100082018401F80000000000000000000000CF
:10112000000000000000E00118030C030C000400A4
:101130000600E60116030E06060606060606040667
:101140000C021803F0000000000000000000000086
:10115000000000000000F8070C0604020401000172
:1011600000018000800040004000400060006000FE
:10117000600060006000000000000000000000004F
:10118000000000000000F8010C0306060606060633
:101190000C021C03F000C8010C0306060606060636
:1011A00006060C03F0010000000000000000000033
:1011B000000000000000F0000C010C03060206060F
:1011C0000606060606078C067806000600030003DE
:1011D0000C018C01780000000000000000000000FD
:1011E00000000000000000000000000000000000FF
:1011F000E000E000E000000000000000000000004F
:10120000E000E000E000000000000000000000003E
:1012100000000000000000000000000000000000CE
:1012200060006000000000000000000000000000FE
:10123000000060006000400020002000000000006E
:1012400000000000000400020001800040002000B7
:10125000100008000400080010002000400080007A
:101260000001000200040000000000000000000077
:10127000000000000000000000000000000000006E
:10128000FE07000000000000FE0700000000000054
:10129000000000000000000000000000000000004E
:1012A0000000000004000800100020004000800042
:1012B0000001000200040002000180004000200044
:1012C0001000080004000000000000000000000002
:1012D000000000000000E0031806040C040C0C0CD5
:1012E0000C0C00078001400040004000000000009E
:1012F000E000E000E000000000000000000000004E
:1013000000000000E00018030C02CC05640566052F
:10131000A605B604B604B604B604B602E4010C048D
:101320000C021803F00000000000000000000000A4
:10133000000000000000600060005000D00090003D
:101340009000880088010801F801040304030402E6
:10135000020202060F0F0000000000000000000063
:10136000000000000000FE008C030C030C030C03C3
:101370000C038C01FC000C030C020C060C060C0682
:101380000C060C03FE01000000000000000000003D
:10139000000000000000E00318030C060C04040425
:1013A00006000600060006000600060006040C04FF
:1013B0000C021803F0000000000000000000000014
:1013C0000000000000007F008C010C030C030C06E1
:1013D0000C060C060C060C060C060C060C060C0380
:1013E0000C038C017F0000000000000000000000E2
:1013F000000000000000FF030603060406040600C8
:1014000086008600FE008600860086000600060430
:1014100006040602FF0300000000000000000000B8
:10142000000000000000FF03060306040604060097
:1014300086008600FE008600860086000600060004
:10144000060006001F000000000000000000000071
:10145000000000000000F00018010C020C02040261
:101460000600060006000600C60F060306030C036E
:101470000C031803F0000000000000000000000052
:101480000000000000000F0F06060606060606060E
:1014900006060606FE0706060606060606060606F3
:1014A000060606060F0F0000000000000000000006
:1014B000000000000000FC036000600060006000AD
:1014C000600060006000600060006000600060001C
:1014D00060006000FC03000000000000000000004D
:1014E000000000000000F807C000C000C000C000FD
:1014F000C000C000C000C000C000C000C000C000EC
:10150000C000C000C000C60066003C000000000033
:10151000000000000000CF038601C6004600260040
:10152000160036002E006E004600C60086008601BA
:10153000060106038F070000000000000000000005
:101540000000000000001F00060006000600060064
:101550000600060006000600060006000600060457
:1015600006040602FF030000000000000000000067
:101570000000000000000707860386038E038E0329
:101580004E034E034A035A035A033A03320332030B
:101590003203120387070000000000000000000073
:1015A0000000000000008E0F0C021C021C0234021E
:1015B0003402640264024402C40284028403840389
:1015C000040304031F0200000000000000000000EC
:1015D000000000000000F00098010C030C02060659
:1015E00006060606060606060606060606060C0299
:1015F0000C039801F0000000000000000000000053
:10160000000000000000FF000603060606060606AE
:10161000060606068603FE00060006000600060013
:10162000060006001F00000000000000000000008F
:10163000000000000000F00098010C030C020606F8
:1016400006060606060606060606060676064C0288
:10165000CC039801F00080070003000000000000A8
:10166000000000000000FF0106030606060606064D
:1016700006060603FE004600C60086008601060335
:10168000060306060F0E0000000000000000000028
:10169000000000000000F8020C030602060206002B
:1016A0000E003C00F800E00380030007020602067B
:1016B00006060C03F001000000000000000000001E
:1016C000000000000000FE0762046108610860007D
:1016D000600060006000600060006000600060000A
:1016E00060006000F8010000000000000000000041
:1016F0000000000000001E070C020C020C020C028D
:101700000C020C020C020C020C020C020C020C0269
:101710000C021801F00000000000000000000000B2
:101720000000000000000F070602040104010C0184
:101730000C0188008800980098005000500070004C
:101740003000200020000000000000000000000029
:10175000000000000000F70E620442044604460444
:1017600064026402E402E4029C029C019801980174
:1017700088018800880000000000000000000000D0
:101780000000000000009E070C01080118019000F5
:10179000B0006000200060006000D0009000880170
:1017A000080104038E070000000000000000000094
:1017B0000000000000000F0F060404020C020801E4
:1017C0001801B800B00070006000600060006000A8
:1017D00060006000F8010000000000000000000050
:1017E000000000000000FC070C020603020180015B
:1017F0008000400040002000200010001800080475
:101800000C040402FE0300000000000000000000C1
:10181000E003200020002000200020002000200005
:1018200020002000200020002000200020002000B8
:101830002000200020002000E00300000000000045
:101840000000000004000400080008001000100060
:1018500010002000200040004000C00080008000F8
:10186000000100010002000200020004000000006C
:101870007C0040004000400040004000400040002C
:101880004000400040004000400040004000400058
:1018900040004000400040007C000000000060006C
:1018A000900008010000000000000000000000009F
:1018B0000000000000000000000000000000000028
:1018C0000000000000000000000000000000000018
:1018D0000000000000000000000000000000000008
:1018E00000000000000000000000000000000000F8
:1018F00000000000000000000000FF0F00000000DA
:10190000180060000000000000000000000000005F
:1019100000000000000000000000000000000000C7
:1019200000000000000000000000000000000000B7
:1019300000000000000000000000000000000000A7
:10194000F0010C030C030003E0031C030E03060369
:1019500006038E0B7C0E000000000000000000005B
:101960000000000008000E000C000C000C000C0031
:10197000CC013C031C060C060C060C060C060C06DF
:101980000C021C03E4010000000000000000000045
:101990000000000000000000000000000000000047
:1019A000F0008C018C01860106000600060006028C
:1019B0000C020C01F000000000000000000000001C
:1019C000000000000002C003000300030003000346
:1019D00078038C030C0306030603060306030603C1
:1019E00004038C07780100000000000000000000E4
:1019F00000000000000000000000000000000000E7
:101A0000E001180308020C060C06FC070C000C0091
:101A100018041802E00100000000000000000000AF
:101A2000000000000000C0036006300630003000F7
:101A3000FE01300030003000300030003000300057
:101A400030003000FC010000000000000000000039
:101A50000000000000000000000000000000000086
:101A6000F007D8068C018C018C019801F8000C005D
:101A7000FC00CC03060306038E03F8000000000000
:101A80000000000008000E000C000C000C000C0010
:101A9000EC011C030C030C030C030C030C030C03E0
:101AA0000C030C039E070000000000000000000073
:101AB0000000000000006000600000000000400026
:101AC0007C006000600060006000600060006000FA
:101AD00060006000FC030000000000000000000047
:101AE000000000000000C001C00100000000000173
:101AF000F00180018001800180018001800180016E
:101B00008001800180018001CC007C000000000089
:101B10000000000008000E000C000C000C000C007F
:101B20008C038C008C004C006C005C008C008C01E1
:101B30000C010C039E0700000000000000000000E4
:101B40000000000040007C00600060006000600059
:101B50006000600060006000600060006000600085
:101B600060006000FC0300000000000000000000B6
:101B70000000000000000000000000000000000065
:101B80003707EE066606660666066606660666069B
:101B900066066606FF0F000000000000000000005F
:101BA0000000000000000000000000000000000035
:101BB000EE011C030C030C030C030C030C030C03BD
:101BC0000C030C039E070000000000000000000052
:101BD0000000000000000000000000000000000005
:101BE000F00098010C030606060606060606060621
:101BF0000C030C03F00000000000000000000000D7
:101C000000000000000000000000000000000000D4
:101C1000EE011C030C060C060C060C060C060C064A
:101C20000C031C03EC010C000C003E000000000043
:101C300000000000000000000000000000000000A4
:101C400078028C030C03060306030603060306034F
:101C500004038C03780300030003C00700000000A6
:101C60000000000000000000000000000000000074
:101C70009F035806380618001800180018001800AE
:101C800018001800FF000000000000000000000025
:101C90000000000000000000000000000000000044
:101CA000F0031C030C020C023800F000C003040314
:101CB00004038C03FC010000000000000000000091
:101CC0000000000000000000200020003000300074
:101CD000FE013000300030003000300030003000B5
:101CE00030023002E00100000000000000000000AF
:101CF00000000000000000000000000000000802DA
:101D00008E030C030C030C030C030C030C030C03D9
:101D10000C039C0778010000000000000000000098
:101D200000000000000000000000000000000000B3
:101D30001E070C020801080118019000B000B00055
:101D400060006000200000000000000000000000B3
:101D50000000000000000000000000000000000083
:101D6000F70E6204460464026402EC029C019801CE
:101D70009801980108000000000000000000000029
:101D80000000000000000000000000000000000053
:101D9000BC0718011001B00060006000E000900076
:101DA000080108039E07000000000000000000007A
:101DB0000000000000000000000000000000000023
:101DC0009E0708010801080190009000B000600023
:101DD000600060002000200024001C0000000000C3
:101DE00000000000000000000000000000000000F3
:101DF000FC018401C400440060002000300018028F
:101E000008020C03FC0100000000000000000000BC
:101E1000000380008000800080008000800080003F
:101E20008000400020004000800080008000800092
:101E3000800080008000800000030000400040001F
:101E40004000400040004000400040004000400092
:101E50004000400040004000400040004000400082
:101E600040004000400040004000400000000000F2
:101E70000C001000100010001000100010001000E6
:101E80001000200040002000100010001000100082
:101E900010001000100010000C00000000001C00DA
:101EA0002204C204800300000000000000000000C3
:101EB0000000000000000000000000000000000022
:101EC0000000000000000000000000000000000012
:101ED0000000000000000000000000000000000002
:101EE00000000000000000000000000000000000F2
:101EF00000000000000000000000000000000000E2
:101F000000000000000000000000000000000000D1
:101F1000000000000000C001C001C001C001C001FC
:101F2000C001C0018000800080008000800080002F
:101F3000800000000000000000008001C003C0031A
:101F40008001000000000000000000000000000010
:101F50000000E01CE01CF01E700E3807180308019A
:101F600084000000000000000000000000000000ED
:101F70000000000000000000000000000000000061
:101F80000000000000000000000000000000000051
:101F90000000000000000000201020102010201081
:101FA0002010FE7FFE7F100810081008100810088F
:101FB00010081008FE7FFE7F0804080408040804C7
:101FC0000804000000000000000000000000000005
:101FD0000000000000010001C00760191031183135
:101FE0001839183938017001E001C0038007000F6B
:101FF000001D003900311C311C310C310C11180D41
:10200000E0070001000100010000000000000000E6
:1020100000000000000000001C1036186308630C6C
:1020200063046304630263026301361D9C378022EC
:10203000806340634063206320633063102218365E
:10204000081C00000000000000000000000000006C
:102050000000000000000000F00098018C018C01DD
:102060008C018C018C00CC007800183E1C083608CE
:10207000320863046304C304C303834306438E2608
:10208000781C0000000000000000000000000000BC
:1020900000001C003C003C003000300010000C0030
:1020A000060000000000000000000000000000002A
:1020B0000000000000000000000000000000000020
:1020C0000000000000000000000000000000000010
:1020D00000000040002000100008000C0004000672
:1020E0000003000300038001800180018001800162
:1020F0008001800180010003000300030006000648
:10210000000C00080010002000400000000000004B
:1021100000000200040008001000300020006000F1
:10212000C000C000C00080018001800180018001EA
:10213000800180018001C000C000C000600060001C
:102140003000100008000400020000000000000041
:1021500000000000000000000000000000018003FB
:10216000800300011C713C79783DC0070001C00765
:10217000783D3C791C7100018003800380010000E0
:10218000000000000000000000000000000000004F
:10219000000000000000000000000000000000013E
:1021A000000100010001000100010001FC7F0001AD
:1021B0000001000100010001000100010000000019
:1021C000000000000000000000000000000000000F
:1021D00000000000000000000000000000000000FF
:1021E00000000000000000000000000000000000EF
:1021F0000000000000000000000000001C003C0087
:102200003C003000300010000C0006000000000010
:1022100000000000000000000000000000000000BE
:10222000000000000000000000000000FE7F000031
:10223000000000000000000000000000000000009E
:10224000000000000000000000000000000000008E
:10225000000000000000000000000000000000007E
:10226000000000000000000000000000000000006E
:102270000000000000000000000018003C003C00CE
:102280001800000000000000000000000000000036
:10229000000000400060002000300010001800081E
:1022A000000C000400060002000300018001800011
:1022B000C00040006000200030001000180008003E
:1022C0000C000400060002000000000000000000F6
:1022D0000000000000000000C007600C301818303B
:1022E000183018200C600C600C600C600C600C60E6
:1022F0000C600C600C601820183018303018600C1E
:10230000C007000000000000000000000000000006
:10231000000000000000000000018001F8018001C1
:1023200080018001800180018001800180018001A5
:102330008001800180018001800180018001C00353
:10234000F81F000000000000000000000000000076
:102350000000000000000000E007101C0818043016
:1023600004300C300C30003000180008000400026B
:102370000001800040002020102008200430FC1FB5
:10238000FC1F000000000000000000000000000032
:102390000000000000000000E003180E0C0C0C18F8
:1023A0000C180C180018000C0006C003000E0018D2
:1023B0000010003000300C300C300C100C18180CD1
:1023C000E00300000000000000000000000000002A
:1023D0000000000000000000000C000E000E000FC6
:1023E000800E800E400E600E200E100E100E080E95
:1023F000040E040EFE7F000E000E000E000E000EF6
:10240000000EC07F0000000000000000000000007F
:102410000000000000000000F03FF03F100010003E
:10242000100008000800C807280C18180810003011
:102430000030003000300C300C3004180418080C48
:10244000F003000000000000000000000000000099
:102450000000000000000000800FC010203010308D
:102460001800180008000C008C0F6C183C301C6021
:102470000C600C600C600C60186018203030601824
:10248000C007000000000000000000000000000085
:102490000000000000000000F83FF83F1C100C088E
:1024A000040804040004000200020001000100010D
:1024B000800080008000C000C000C000C000C000DC
:1024C000C00000000000000000000000000000004C
:1024D0000000000000000000E007300C18180C306D
:1024E0000C300C301C3038187008E007B007180E9C
:1024F0000C1C063806300630063006300C18180C56
:10250000E0030000000000000000000000000000E8
:102510000000000000000000E00318040C080C1884
:102520000610063006300630063006380C3C1836E9
:10253000F03100300018001800180C0C0C060C03C9
:10254000F00100000000000000000000000000009A
:10255000000000000000000000000000000000007B
:102560000000000000008001C003C00380010000E3
:10257000000000000000000000008001C003C00354
:1025800080010000000000000000000000000000CA
:10259000000000000000000000000000000000003B
:1025A000000000000000C000C000000000000000AB
:1025B0000000000000000000000000000000C0005B
:1025C000C0008000800040004000000000000000CB
:1025D00000000000000000200010000800040006B9
:1025E00000038001C0006000300018000C001800DB
:1025F00030006000C00080010003000600040008F5
:10260000001000200000000000000000000000009A
:1026100000000000000000000000000000000000BA
:10262000000000000000FE7F00000000000000002D
:102630000000FE7F0000000000000000000000001D
:10264000000000000000000000000000000000008A
:1026500000000000000004000800100020006000DE
:10266000C000800100030006000C001800300018B4
:10267000000C000600038001C00060002000100074
:10268000080004000000000000000000000000003E
:10269000000000000000C0073018083008600C601F
:1026A0001C601C601C600030001C000600018000E3
:1026B000800080008000000000008001C003C00393
:1026C0008001000000000000000000000000000089
:1026D0000000000000000000C00760181030182043
:1026E0000C2F8C4D864CC64CC64C664C66446644DA
:1026F000662666266615CC1C0C400820183030185B
:10270000C007000000000000000000000000000002
:102710000000000000000001C001C001C001400134
:102720006003200320032003300610061006100665
:10273000F80F080C080C080C0C0C041804180618E8
:102740001F7C0000000000000000000000000000EE
:102750000000000000000000FE07181C18381830A8
:102760001830183018301818180CF80718181830C6
:102770001820186018601860186018601830181851
:10278000FE0F00000000000000000000000000003C
:102790000000000000000000C02760381030182042
:1027A0000C400C400400060006000600060006006F
:1027B0000600060006000C400C400C2018303018B3
:1027C000C007000000000000000000000000000042
:1027D0000000000000000000FE03180E181818305A
:1027E0001830183018601860186018601860186089
:1027F0001860186018601830183018101818180E63
:10280000FE030000000000000000000000000000C7
:102810000000000000000000FE3F18301820186083
:102820001840180018081808180CF80F180C180889
:102830001808180018001800184018401820183000
:10284000FE3F00000000000000000000000000004B
:102850000000000000000000FE7F1870184018C043
:1028600018801800181018101818F81F18181810C9
:102870001810180018001800180018001800180088
:102880007E000000000000000000000000000000CA
:102890000000000000000000C013701C1010181091
:1028A0000C200C20040006000600060006000600AE
:1028B00006FC063006300C300C301830183030086A
:1028C000C007000000000000000000000000000041
:1028D00000000000000000003F7E0C180C180C18CF
:1028E0000C180C180C180C180C180C18FC1F0C18D1
:1028F0000C180C180C180C180C180C180C180C18B8
:102900003F7E00000000000000000000000000000A
:102910000000000000000000F81F8001800180011D
:10292000800180018001800180018001800180019F
:10293000800180018001800180018001800180018F
:10294000F81F000000000000000000000000000070
:102950000000000000000000E07F00060006000606
:102960000006000600060006000600060006000637
:102970000006000600060006000600060006000627
:10298000000600060E060E038E01FC00000000008B
:1029900000000000000000007E7C181818081804D1
:1029A00018061802180198019801D801B8033803D5
:1029B00018071806180E180C181C1818183018309C
:1029C0007EFC00000000000000000000000000008D
:1029D00000000000000000007E0018001800180031
:1029E0001800180018001800180018001800180027
:1029F0001800180018001800184018401820183047
:102A0000FE3F000000000000000000000000000089
:102A100000000000000000001FF81C381C381C38A3
:102A20001C3C3434343434343436743264326432DA
:102A300064326431C431C431C431C430C4308430F0
:102A40009FFC0000000000000000000000000000EB
:102A500000000000000000001F7C1C103C1034101F
:102A6000341074106410E410C410C4118411841361
:102A7000041304170416041E041C041C041C04186C
:102A80001F1800000000000000000000000000000F
:102A90000000000000000000C003300C18180810EF
:102AA0000C300C300660066006600660066006604A
:102AB0000660066006600C200C3008101818300CF8
:102AC000C003000000000000000000000000000043
:102AD0000000000000000000FE0F181818301860F9
:102AE000186018601860186018301818F80F18006F
:102AF0001800180018001800180018001800180016
:102B00007E00000000000000000000000000000047
:102B10000000000000000000C003300C18180C106A
:102B20000C300C20066006600660066006600660D9
:102B3000066006600660E4612C331C321816300E05
:102B4000C007004C007C00380000000000000000BE
:102B50000000000000000000FE07181C18381830A4
:102B60001830183018301818180CF8079803180384
:102B7000180718061806180E180C180C181C181828
:102B80007E7800000000000000000000000000004F
:102B90000000000000000000E027303818300C2052
:102BA0000C200C000C0018007800E003800F001EC1
:102BB0000038007000600460046008601830381845
:102BC000C80F00000000000000000000000000002E
:102BD0000000000000000000FC3F8C218461824165
:102BE000824180018001800180018001800180019B
:102BF00080018001800180018001800180018001CD
:102C0000E0070000000000000000000000000000DD
:102C100000000000000000003F7C0C100C100C10A5
:102C20000C100C100C100C100C100C100C100C10C4
:102C30000C100C100C100C100C100C1008083804A0
:102C4000E0030000000000000000000000000000A1
:102C500000000000000000003EF818201820182096
:102C60003010301030103010600860086008E00C40
:102C7000C004C004C00480038003800380030001FB
:102C80000001000000000000000000000000000043
:102C90000000000000000000DFF38661862186212D
:102CA0008C210C218C238C138C138C134C135812F5
:102CB0005816580E380E380E380E300C100410040A
:102CC00010040000000000000000000000000000F0
:102CD00000000000000000007E3E180838083004A4
:102CE000300470026002E001C001C0018001800375
:102CF0004003400720062006100C100C0818081886
:102D00003E7C000000000000000000000000000009
:102D100000000000000000007E7C1C101810180845
:102D20003008300C700460046002C002C002C001B0
:102D3000800180018001800180018001800180018B
:102D4000E00700000000000000000000000000009C
:102D50000000000000000000F83F18180818040CDC
:102D6000040E00060007000380038001C001C000BC
:102D7000E000600070003000382018201C100C1893
:102D8000FE1F000000000000000000000000000026
:102D90000000C03F400040004000400040004000B4
:102DA0004000400040004000400040004000400023
:102DB0004000400040004000400040004000400013
:102DC000400040004000C03F000000000000000044
:102DD000000000000000080018001800100030007B
:102DE0002000600060004000C00080008001800181
:102DF000000100030002000600060004000C0008A9
:102E00000018001800100030002000000000000032
:102E10000000FC03000200020002000200020002A7
:102E20000002000200020002000200020002000292
:102E30000002000200020002000200020002000282
:102E4000000200020002FC0300000000000000007D
:102E500000008007C00620081010000000000000DD
:102E60000000000000000000000000000000000062
:102E70000000000000000000000000000000000052
:102E80000000000000000000000000000000000042
:102E90000000000000000000000000000000000032
:102EA0000000000000000000000000000000000022
:102EB0000000000000000000000000000000000012
:102EC00000000000000000000000FFFF0000000004
:102ED00000007800C00000010000000000000000B9
:102EE00000000000000000000000000000000000E2
:102EF00000000000000000000000000000000000D2
:102F000000000000000000000000000000000000C1
:102F100000000000000000000000000000000000B1
:102F2000000000000000F00318060C0C0C0C000C54
:102F3000800F700C1C0C0C0C060C060C064C0C4F75
:102F4000F838000000000000000000000000000051
:102F500000000000000010001E00180018001800FB
:102F6000180018001800180FD8183830386018608A
:102F700018601860186018601860182038307818C9
:102F8000C807000000000000000000000000000072
:102F90000000000000000000000000000000000031
:102FA000000000000000C007700C181818180C185A
:102FB0000C000C000C000C000C201820181030081D
:102FC000C00700000000000000000000000000003A
:102FD0000000000000000010001E0018001800187B
:102FE000001800180018E01B301C181818180C18CE
:102FF0000C180C180C180C180C180818181C307A1F
:10300000E0090000000000000000000000000000D7
:1030100000000000000000000000000000000000B0
:10302000000000000000C007300C181808100C3019
:103030000C30FC3F0C000C000C001820181070180D
:10304000C0070000000000000000000000000000B9
:103050000000000000000000003E80C380C0C0C02F
:10306000C000C000C000FC1FC000C000C000C00005
:10307000C000C000C000C000C000C000C000C00050
:10308000F80F000000000000000000000000000039
:103090000000000000000000000000000000000030
:1030A000000000000000C077306C101818181818C5
:1030B00018181018300CF00718001800F00FF03F27
:1030C00008700C600C600C603838E00F00000000E5
:1030D00000000000000010001E001800180018007A
:1030E000180018001800980FD81838301830183009
:1030F0001830183018301830183018301830183090
:103100007EFC000000000000000000000000000045
:103110000000000000000000800380038003000026
:10312000000000000001F8018001800180018001A1
:103130008001800180018001800180018001800187
:10314000F81F000000000000000000000000000068
:1031500000000000000000000038003800380000C7
:10316000000000000010801F001800180018001850
:10317000001800180018001800180018001800188F
:10318000001800180018180C1806F00300000000C2
:1031900000000000000010001E00180018001800B9
:1031A000180018001800183E180C1806180318010B
:1031B0009801D801380318071806180C181C18189D
:1031C0007E7C000000000000000000000000000005
:1031D0000000000000000001F80180018001800172
:1031E00080018001800180018001800180018001D7
:1031F00080018001800180018001800180018001C7
:10320000F81F0000000000000000000000000000A7
:1032100000000000000000000000000000000000AE
:10322000000000000800EE1C9C338C318C318C3186
:103230008C318C318C318C318C318C318C318C31A6
:10324000DE7B000000000000000000000000000025
:10325000000000000000000000000000000000006E
:103260000000000010001E0FD81838301830183039
:10327000183018301830183018301830183018300E
:103280007EFC0000000000000000000000000000C4
:10329000000000000000000000000000000000002E
:1032A000000000000000C007701C103018300C60D7
:1032B0000C600C600C600C600C601830183030181A
:1032C000C007000000000000000000000000000037
:1032D00000000000000000000000000000000000EE
:1032E0000000000010009E0F581838301820186099
:1032F0001860186018601860186018303830781836
:10330000980718001800180018007E000000000040
:1033100000000000000000000000000000000000AD
:10332000000000000000C023303C183818300C307A
:103330000C300C300C300C300C3008301838303C6D
:10334000E033003000300030003000FC00000000AE
:10335000000000000000000000000000000000006D
:103360000000000060007E3C60666061E000E000FC
:10337000600060006000600060006000600060004D
:10338000FE07000000000000000000000000000038
:10339000000000000000000000000000000000002D
:1033A000000000000000E027303818301820180016
:1033B0007000E003800F001C043004300C301C1837
:1033C000EC0F000000000000000000000000000002
:1033D00000000000000000000000000080008000ED
:1033E0008000C000E000FC1FC000C000C000C000A2
:1033F000C000C000C000C000C000C020C0208011BC
:10340000000F0000000000000000000000000000AD
:1034100000000000000000000000000000000000AC
:103420000000000010201E3C1830183018301830F2
:10343000183018301830183018301830183830F468
:10344000E013000000000000000000000000000089
:10345000000000000000000000000000000000006C
:103460000000000000007E3C1818180838083004DE
:103470003004700260026002E001C001C001C000BF
:1034800080000000000000000000000000000000BC
:10349000000000000000000000000000000000002C
:1034A000000000000000DFF78E630C238C238C23C8
:1034B0009813981358165816700E700E700E20043C
:1034C00020040000000000000000000000000000D8
:1034D00000000000000000000000000000000000EC
:1034E000000000000000FC3E70087004E004C00210
:1034F000C0018003800340076006200C100C1818E0
:103500003E7E0000000000000000000000000000FF
:1035100000000000000000000000000000000000AB
:103520000000000000007E7C1818180830083008E1
:10353000300460046004C002C002C0028001800147
:1035400080018000800080004C003C0000000000F2
:10355000000000000000000000000000000000006B
:10356000000000000000FC1F0C0C040E0406000309
:1035700080038001C000E0007020302038301C182B
:10358000FC1F000000000000000000000000000020
:1035900000000030000800040004000400040004DF
:1035A0000004000400040004000400028001000282
:1035B00000040004000400040004000400040004EB
:1035C00000040004000400080030000000010001B5
:1035D00000010001000100010001000100010001E3
:1035E00000010001000100010001000100010001D3
:1035F00000010001000100010001000100010001C3
:1036000000010001000100010001000100000000B4
:1036100000000C00100020002000200020002000EE
:1036200020002000200020002000400080014000F9
:10363000200020002000200020002000200020008A
:1036400020002000200010000C00000000003800C6
:10365000C400864002610022001C0000000000003F
:10366000000000000000000000000000000000005A
:10367000000000000000000000000000000000004A
:103680000000000000000000000000002DE9F84FDD
:10369000044601F04DFC002C00F02E812168DFF87B
:1036A0006CB604F13405DFF86866DFF86876DFF899
:1036B0006886DFF86896DFF868A6594518BF514557
:1036C0002AD0494518BF414526D0B94218BFB1425A
:1036D00022D001F047FA1CBFDFF8483699421BD0D0
:1036E00001F03CFA1CBFDFF84026914214D000F0F4
:1036F00049FE1CBFDFF8342691420DD001F026FAB6
:103700001CBFDFF82C36994206D001F01BFA1CBF13
:10371000DFF82026914245D1022300226B705945E3
:103720002A7018BF51452AD0494518BF414526D0B7
:10373000B94218BFB14222D001F014FA1CBFDFF821
:10374000E43599421BD001F009FA1CBFDFF8D825F7
:10375000914214D000F016FE1CBFDFF8D025914234
:103760000DD001F0F3F91CBFDFF8C435994206D043
:1037700001F0E8F91CBFDFF8BC25914242D10B688B
:103780008E465B085B00CEF800300090226810681F
:10379000C1073DD501F0CCFB009A801A0628F5D36D
:1037A0002020A6E0DFF8900581421CBFDFF88C25C1
:1037B000914218D0DFF8883599421CBFDFF88405A4
:1037C000814210D0DFF8802591421CBFDFF87C35A4
:1037D000994208D0DFF8780581421CBFDFF80C2938
:1037E000914240F085800221002069702870236892
:1037F0001B68A06840286FF3101340F07F8043F0EF
:1038000010037FE00A680B46520852001A60BCE7BA
:103810001368DFF84015A0680B4021690343E06896
:10382000034360690B43E1690343A0690343206AD2
:103830000B430343606A042803D1E16A206B0B4306
:103840000343DFF814C5DCF800E04FEA1E40000433
:10385000B0F1005F11D36068A0F12901062924BFEF
:10386000A0F13F01042906D3A0F14701022924BF9A
:103870004F38042801D243F480131360226853693F
:10388000606ADB0840EAC30304280ED1D4F828E0BC
:10389000E06A4EEA030340B1A16969B9BEF1000FC5
:1038A00018BFBEF1020F1CD011D35361204601F0A6
:1038B00031FA00F0C4F845E0B1F5005F0BD1BEF17C
:1038C000030FF2D8DFE80EF00F0D0F03EDE7B0F1B4
:1038D000C07FEAD107E0BEF1020F04D9BEF10301B7
:1038E000E3D1C001E1D540210122296201209BE002
:1038F0004020286203216970012096E0802808BFDB
:1039000043F48043E168206962694FF0140C084376
:10391000A1691043226A0143E0690843216843EA30
:10392000D003DFF8380443EA12130B602368C3188E
:10393000B3FBFCFC4FEA8C00A862204601F0EAF9D8
:1039400000F075F82068584518BF50454CD04845E0
:1039500018BF404548D0B84218BFB04244D0DFF845
:10396000001488421CBFDFF8BC2390423CD0DFF833
:10397000F43398421CBFDFF8B013884234D000F013
:10398000B7FB1CBFDFF8A43398422DD000F0B8F984
:103990001CBFDFF89C23904226D000F0ADF91CBF7D
:1039A000DFF8901388421FD0DFF88C2390421CBFB1
:1039B000DFF88833984217D0DFF8841388421CBFA1
:1039C000DFF8802390420FD0DFF87C3398421CBF91
:1039D000DFF87813884207D0DFF8742390421CBFC9
:1039E000DFF8083798421BD1204601F0EBF9A068B8
:1039F000802804BF00216160E96A20790860286B93
:103A00006A6B4260606838B1092805D2204601F02F
:103A100027FA00F01CF803E00021A963E963296498
:103A200000210122296200206A70BDE8F28F95F81A
:103A30002820012102F01F0291404160704795F853
:103A400028203F2102F01F02914081607047A96B3E
:103A500000200860E86B2A6C426070472DE9F84F3F
:103A600004004FF0000B08BF012005D004F134061C
:103A70003078012808BF022000F02F81012737701D
:103A80007078012840F022814FF0020C002786F860
:103A900001C0DFF878A2376220689F4F00F01FFB5B
:103AA00018BF48452AD0404518BFB84226D0994D86
:103AB000A8421CBF964DA84220D0A94DA8421CBFC9
:103AC000984DA8421AD0A74DA8421CBF964DA842B7
:103AD00014D0DFF83456A8421CBF944DA8420DD034
:103AE000DFF82856A8421CBF914DA84206D0DFF847
:103AF0002056A8421CBF8F4DA8420AD12068D0F89A
:103B000000C04FEA5C054FEA450C8646CEF800C07F
:103B100006E02568286840084000AC46CCF8000064
:103B2000204601F025F82068504518BF484528D0A8
:103B3000404518BFB84224D0764988421CBF744A19
:103B400090421ED000F0C7FA1CBF7649884218D0B8
:103B500000F0D5FA1CBF744B984212D0DFF8A815BC
:103B600088421CBF714A90420BD000F0B0FA1CBFD3
:103B70006F49884205D000F0BEFA1CBF6D4B9842D9
:103B80000DD121680B200A6860F344020B461A60CD
:103B9000F06890B12068016841F008010CE02168EC
:103BA00005200A6860F343020B461A60F06820B1F2
:103BB0002068016841F00401016020686949594AA0
:103BC000674BDFF84CC1DFF84CE1504518BF484562
:103BD0003ED0404518BFB8423AD0704518BF604546
:103BE00036D0984218BF904232D088421CBF4E4D0A
:103BF000A8422DD0DFF81055A8421CBF4B4DA8425B
:103C000026D0DFF80855A8421CBF494DA8421FD056
:103C1000DFF8FC54A8421CBF464DA84218D0464DC0
:103C2000A8421CBF454DA84212D0454DA8421CBF1A
:103C3000444DA8420CD0444DA8421CBF434DA8425D
:103C400006D0434DA8421CBFDFF8A054A8420FD1B4
:103C5000F06A0568ED0303D5056845F480750560D5
:103C6000B06B28B105462E46286840F4807030605D
:103C70002068504518BF484522D0404518BFB8427B
:103C80001ED0704518BF60451AD0984218BF9042A8
:103C900016D088421CBF2449884211D000F028FA6F
:103CA0001CBF224B98420BD000F02AF81CBF204AC0
:103CB000904205D000F020F81CBF1E49884202D176
:103CC00000F00DF808E000F010F805E04FF4006394
:103CD000336286F800B0BB465846BDE8F28F0268F2
:103CE000034642F001021A60704701460A4608681E
:103CF00040F0010010607047DFF8143498427047BC
:103D0000DFF80814884270470000000010000240ED
:103D1000880002407000024058000240400002400B
:103D200028000240B8000240280402405804024023
:103D300088040240B8040240085402581C54025837
:103D40003054025844540258585402586C54025883
:103D5000805402583F8010FE0010005CF8ABFDA7B5
:103D6000A0000240100402402DE9F84F054601F082
:103D7000DFF8002D044600F0F38005F1340670787A
:103D8000022802D080213162E8E02868DFF8F0A53F
:103D9000DFF8F8B500F0A3F918BF48452FD040452B
:103DA00018BF58452BD0DFF8E81588421CBFDFF854
:103DB000E425904223D000F08EF91CBFDFF8D8151F
:103DC00088421CD000F09BF91CBFDFF8D035984228
:103DD00015D0DFF8341388421CBFDFF8C4259042A9
:103DE0000DD000F074F91CBFDFF8B815884206D07A
:103DF00000F081F91CBFDFF8B03598420AD10168A4
:103E0000024621F01E0111602868436923F08003F7
:103E1000436104E00168024621F00E011160286848
:103E20002F68504518BF48454ED0404518BF5845EB
:103E30004AD0DFF85C1588421CBFDFF85825904255
:103E400042D000F048F91CBFDFF84C1588423BD047
:103E500000F055F91CBFDFF84435984234D0AA4928
:103E600088421CBFDFF8382590422DD000F02FF992
:103E70001CBFDFF83015884226D000F03CF91CBF8B
:103E8000DFF8243598421FD0DFF8201588421CBF88
:103E9000DFF81C25904217D0DFF8183598421CBF78
:103EA000DFF8141588420FD0DFF8102590421CBFB0
:103EB000DFF80C35984207D0DFF8081588421CBFA0
:103EC000DFF8B824904204D1F06A016821F48071CF
:103ED00001602868504518BF48452ED0404518BF9E
:103EE00058452AD0DFF8A82490421CBFDFF8A4145C
:103EF000884222D000F0EFF81CBFDFF89C249042EB
:103F00001BD000F01BFE1CBFDFF89034984214D089
:103F100000F0EEF81CBFDFF8881488420DD000F0E6
:103F2000D6F81CBFDFF87C24904206D000F002FED9
:103F30001CBFDFF87434984214D10268014652085D
:103F400052000A603B68D80712D500F0F1FF001B51
:103F50000628F7D3202003213062717000223270CE
:103F60000120B2E001680246490849001160E9E712
:103F7000D5F800E0DFF82404DFF84C14DFF818244B
:103F8000DFF84834DFF80C44DFF804C4D64518BF26
:103F9000CE4526D0C64518BFDE4522D0E64518BF1F
:103FA000A6451ED09E4518BF96451AD08E4518BF0F
:103FB000864516D0544FBE451CBFDFF8E473BE459E
:103FC0000FD0DFF80C74BE451CBFDFF8D873BE45B8
:103FD00007D0DFF80074BE451CBFDFF8CC73BE45C8
:103FE0000BD196F828704FF03F0E07F01F070EFA1E
:103FF00007FE776AC7F808E00AE096F828704FF0E5
:10400000010E07F01F070EFA07FE776AC7F804E0F3
:104010002D68554518BF4D4545D0454518BF5D45F0
:1040200041D0654518BFA5423DD09D4218BF95427D
:1040300039D08D4218BF854235D0334885421CBFE8
:10404000DFF85C138D422ED0DFF8842395421CBF2D
:10405000DFF85003854226D0DFF878138D421CBF6D
:10406000DFF8442395421ED0DFF8400385421CBF91
:10407000DFF83C138D4216D0DFF8382395421CBF81
:10408000DFF8340385420ED0DFF830138D421CBFB9
:10409000DFF82C23954206D0DFF8280385421CBFA9
:1040A000B6498D420CD1336B726B5A60B06B38B12C
:1040B00001460A6822F480720260F26B316C516032
:1040C00001200021707000203170BDE8F28FDFF810
:1040D000003398427047DFF8F43298427047DFF8B7
:1040E000F882DFF8F8925045704700009454025867
:1040F000054A90427047DFF8DC2290427047DFF8B3
:10410000C822904270470000400402407004024000
:10411000A00402402DE9F84F30B100F1340251788B
:10412000022903D080201062012025E10668DFF813
:104130005092DFF86812DFF89032DFF85C42DFF867
:104140008C52DFF850A2DFF848B2DFF840C2DFF847
:1041500088E2DFF888824E4518BF464527D076456D
:1041600018BF664523D05E4518BF56451FD0AE42E6
:1041700018BFA6421BD09E4218BF8E4217D0DFF850
:104180006072BE421CBFDFF81872BE420FD0DFF86B
:104190004072BE421CBFDFF80C72BE4207D0DFF88F
:1041A0003472BE421CBFDFF80072BE4234D1042715
:1041B0004E45577018BF464527D0764518BF66450F
:1041C00023D05E4518BF56451FD0AE4218BFA64249
:1041D0001BD09E4218BF8E4217D0DFF804128E42C9
:1041E0001CBFDFF8BC2196420FD0DFF8E4319E42BD
:1041F0001CBFDFF8B0118E4207D0DFF8D8219642FD
:104200001CBFDFF8A4319E423DD1314608460C6800
:10421000640864000460AEE0376827F00E0737607A
:1042200006684E4518BF464527D0764518BF6645F7
:1042300023D05E4518BF56451FD0AE4218BFA642D8
:104240001BD09E4218BF8E4217D0DFF89471BE4239
:104250001CBFDFF84C71BE420FD0DFF87471BE4254
:104260001CBFDFF84071BE4207D0DFF86871BE4264
:104270001CBFDFF83471BE420CD13668076876087F
:1042800076003E600AE0314608460A68520852004D
:10429000026070E037687F087F00376006684E452F
:1042A00018BF464546D0764518BF664542D05E45A4
:1042B00018BF56453ED0AE4218BFA6423AD09E42E5
:1042C00018BF8E4236D0DFF818118E421CBFDFF8BF
:1042D000D0309E422ED0DFF8F840A6421CBFDFF857
:1042E000C4108E4226D0DFF8EC309E421CBFDFF8AF
:1042F000B840A6421ED0DFF8B4108E421CBFDFF8D3
:10430000B0309E4216D0DFF8AC40A6421CBFDFF8AA
:10431000A8108E420ED0DFF8A4309E421CBFDFF8FA
:10432000A040A64206D0DFF89C108E421CBF134B63
:104330009E4219D1D16A0C6824F480740C6092F802
:104340002830546A012103F01F0399406160156B06
:10435000536B6B60916B39B10B461C6824F480740D
:104360000C60D46B136C6360012100235170D16920
:10437000137001B188470020BDE8F28F94540258B1
:1043800010000240164B994270470000580002404E
:104390007000024088000240B80002402804024039
:1043A0005804024088040240B804024008540258ED
:1043B0001C5402583054025844540258585402585D
:1043C0006C5402588054025810040240A00002406D
:1043D00070040240A0040240400002402800024055
:1043E000400402402DE9FE4F0021DFF81829019119
:1043F00013684FF4165504460822DFF80CB9B3FBD6
:10440000F5F5029504F13405686A01230090DFF8A0
:10441000FC78DFF8FC88DFF890990146DFF88CA97A
:104420000E680168D4F800C0DC4518BFD44531D00F
:10443000CC4518BFC4452DD0BC451CBFDFF870E982
:10444000F44527D0DFF878EAF4451CBFDFF864E9CB
:10445000F4451FD0DFF86CEAF4451CBFDFF858E9DB
:10446000F44517D0DFF860EAF4451CBFDFF84CE9EB
:10447000F4450FD0DFF854EAF4451CBFDFF840E9FB
:10448000F44507D0DFF848EAF4451CBFDFF844EAFA
:10449000F44541D100F049FB02FA00F0064200F079
:1044A0009580DC4518BFD44531D0CC4518BFC445F4
:1044B0002DD0BC451CBFDFF8F8188C4527D0DFF89D
:1044C000000A84451CBFDFF8EC0884451FD0DFF8E4
:1044D000F4198C451CBFDFF8E008844517D0DFF8DD
:1044E000E80984451CBFDFF8D4188C450FD0DFF8ED
:1044F000DC0984451CBFDFF8C808844507D0DFF815
:10450000D0198C451CBFDFF8CC0984454AD1DCF8B2
:10451000000000F0040049E0DFF82869B4451CBF42
:10452000DFF82469B44518D0DFF82069B4451CBF12
:10453000DFF81C69B44510D0DFF81869B4451CBF1A
:10454000DFF81469B44508D0DFF81069B4451CBF22
:10455000DFF81866B44540F0E682DCF8006095F8B4
:1045600028C04FF0040E0CF01F0C0EFA0CFE11EADE
:104570000E0FCDF800E000F050825FEA467E40F179
:104580004C8200994160300440F1FD81F10300F15B
:104590003C826969002900F0C682204603B0BDE86C
:1045A000F04F08476046006800F0080070B16046B0
:1045B000016821F00401CCF8001000F0B6FA824046
:1045C00000988260296A41F00101296200F0ADFA89
:1045D00026FA00F1CA073DD52168594518BF514553
:1045E0002ED0494518BF41452AD0B9421CBFDFF83B
:1045F000C027914224D000F0B5FA1CBFDFF8B427E1
:1046000091421DD000F0AAFA1CBFDFF8AC279142FE
:1046100016D0DFF8B42891421CBFDFF8A0279142E2
:104620000ED000F093FA1CBFDFF89427914207D018
:1046300000F088FA1CBFDFF89C28914240F092807D
:104640004969090606D5834000988360296A41F0CC
:104650000201296295F82800042200F01F0002FAE6
:1046600000F006423FD02168594518BF51452FD070
:10467000494518BF41452BD0B9421CBFDFF8302750
:10468000914225D0DFF8383899421CBFDFF8242743
:1046900091421DD000F062FA1CBFDFF81C3799422E
:1046A00016D0DFF8242891421CBFDFF81027914272
:1046B0000ED0DFF8183899421CBFDFF8042791426A
:1046C00006D000F03FFA1CBFDFF8083899424BD102
:1046D000D1F800C05FEA8C7205D500998860286A1D
:1046E00040F00400286295F82810102201F01F0104
:1046F00002FA01F10E4259D02068584518BF5045C2
:104700002CD0484518BF404528D0B8421CBFDFF820
:10471000A026904222D0FFF7DEFC1CBFDFF89426D3
:1047200090421BD0FFF7EBFC1CBFDFF88C369842A1
:1047300014D0FFF7DDFC1CBFDFF8802690420DD0BF
:10474000FFF7C5FC1CBFDFF87826904206D0FFF7C4
:10475000D2FC1CBFDFF87C37984208D1006800F01B
:10476000080009E00A6875E708460368BBE7844665
:10477000DCF8000000F00400C0B1009881602068FF
:1047800001684A0307D5006801030BD5696969B15F
:10479000204688470AE00168CA0503D4036823F06D
:1047A00008030360E96809B12046884795F8281096
:1047B000202001F01F0100FA01F10E423BD02068D9
:1047C000584518BF50452DD0484518BF404529D001
:1047D000B8421CBFDFF8D825904223D0FFF77BFCFE
:1047E0001CBFDFF8D065B0421CD0FFF788FC1CBFAF
:1047F000DFF8C435984215D0DFF8CC66B0421CBF54
:10480000DFF8B82590420DD0FFF761FC1CBFDFF840
:10481000B065B04206D0FFF76EFC1CBFDFF8B436BF
:10482000984203D1006800F0100003E002461068CF
:1048300000F00200002847D0009881602068697865
:10484000042927D1026822F0160202602068436919
:1048500023F080034361E968002904BF68690028E8
:1048600004D02068016821F00801016095F8282033
:1048700000993F2002F01F0290408860012068707C
:104880000022E9692A70002920D0204603B0BDE843
:10489000F04F084701684A0307D5006801030FD4A9
:1048A000296989B1204688470EE00168CA0507D406
:1048B0000368002123F01003036001206870297051
:1048C000A96809B120468847286A002800F02B8192
:1048D000296AC80756D504226A702068584518BF4F
:1048E00050452ED0484518BF40452AD0B8421CBF7D
:1048F000DFF8BC14884224D0DFF8C42590421CBFE6
:10490000DFF8B03498421CD000F018F91CBFDFF873
:10491000A824904215D000F01DF91CBFDFF89C14AC
:1049200088420ED0DFF8A42590421CBFDFF89034F7
:10493000984206D000F0FEF81CBFDFF898259042A0
:1049400017D1206803685B085B0001460B60029882
:10495000019A521C90420192216802D30A68D3073F
:10496000F6D40868C10747BF03226A7001236B7041
:1049700006E0206801684908490002461160E6E740
:1049800000202870C8E0B0063FD42068584518BF02
:1049900050452ED0484518BF40452AD0B8421CBFCC
:1049A000DFF80C14884224D0DFF8142590421CBF95
:1049B000DFF8003498421CD000F0C0F81CBFDFF8CC
:1049C000F823904215D000F0C5F81CBFDFF8EC13B7
:1049D00088420ED0DFF8F42490421CBFDFF8E033A9
:1049E000984206D000F0A6F81CBFDFF8E8249042F9
:1049F00005D10368014623F008030B6005E0024679
:104A00001346106820F004001860E968002918D0E7
:104A1000204603B0BDE8F04F08474FF0020E0EFAF3
:104A20000CFE11EA0E0FCDF800E05DD05FEA867E45
:104A30005AD500994160300409D5F1034DD4296954
:104A4000002970D0204603B0BDE8F04F0847B006FB
:104A500043D42068584518BF50452ED0484518BF4C
:104A600040452AD0B8421CBFDFF84413884224D006
:104A7000DFF84C2490421CBFDFF8383398421CD03A
:104A800000F05CF81CBFDFF83023904215D000F036
:104A900061F81CBFDFF8241388420ED0DFF82C2405
:104AA00090421CBFDFF81833984206D000F042F85D
:104AB0001CBFDFF82024904205D10368014623F093
:104AC00014030B6005E002461346106820F00A004C
:104AD00018600121002069702870A96819B3204668
:104AE00003B0BDE8F04F084702FA0CF211421AD0A9
:104AF000310718D52268166826F00E0617460122DF
:104B00003E6095F8281001F01F018B4043600120A2
:104B1000286200216A702970A96921B1204603B07A
:104B2000BDE8F04F0847BDE8F78F95F8280000F082
:104B30001F007047DFF8981388427047DFF884132E
:104B400088427047DFF8882391427047DFF87C2362
:104B500091427047DFF8703398427047DFF8642362
:104B600091427047DFF8582391427047945402589D
:104B70002DE9F84F0446DFF890A1A56DDFF830B2BB
:104B800000952668DFF884C1DFF884E1DFF8188239
:104B9000DFF81892564518BF4E4543D0464518BF1A
:104BA00076453FD0664518BF5E453BD0DFF8100321
:104BB00086421CBF7F4FBE4234D0DFF808038642D6
:104BC0001CBF7D4886422DD0DFF8FC72BE421CBF60
:104BD0007A48864226D0DFF8F40286421CBF784F1E
:104BE000BE421FD0DFF8E80286421CBFDFF8E402B5
:104BF000864217D0934FBE421CBF9348864211D0C5
:104C0000924886421CBF924FBE420BD091488642CA
:104C10001CBF9148864205D0904FBE421CBFAE4893
:104C200086425BD1676EA06E7860E06E10B1206F37
:104C3000676F4760564518BF4E4525D0464518BF9B
:104C4000764521D0664518BF5E451DD09C488642FA
:104C50001CBF5848864217D09A4886421CBF564807
:104C6000864211D0984886421CBF544886420BD0D9
:104C7000964886421CBF5248864205D094488642D8
:104C80001CBF9448864215D194F85C00DDF800B052
:104C90003F2500F01F008540CBF80850356825F40B
:104CA000802535607360A068402827D0B160F2602D
:104CB000BDE8F18F634886421CBF6348864210D02E
:104CC000624886421CBF624886420AD061488642DA
:104CD0001FBF614886426148864202D07E488642B4
:104CE000E6D194F85C00012700F01F0007FA00FCF1
:104CF000C5F804C07360A368402BD7D1B260F160DF
:104D0000D6E7000090000020100002407000024032
:104D100058000240F0B50168704A91421CBF234B15
:104D2000994229D0204CA1421CBF6D4A914223D008
:104D30006C4B99421CBF1E4CA1421DD0FFF712FFC5
:104D40001CBF1C4B994217D05E4CA1421CBF1A4A93
:104D5000914211D0FFF716FB1CBF184CA1420BD09B
:104D6000FFF7F4FE1CBF164B994205D0584CA142E8
:104D70001CBF584A914211D101F0FF03890A103B30
:104D80001824B3FBF4F20FF2A01502F00706890213
:104D9000AF5D042AC76503D3091D01E0090A0902B2
:104DA00081650846F0BD0000400002402800024036
:104DB00088000240B8000240280402405804024023
:104DC00088040240F0B5046801221E4D2346AC421F
:104DD0001CBF1D4EB44211D01C4FBC421CBF1C4D09
:104DE000AC420BD01B4EB4421CBF1B4FBC4205D083
:104DF0001A4DAC421CBF384EB4420DD104F0FF0135
:104E000008391423384DB1FBF3F1384B03EB810320
:104E100001F01F018A4011E004F0FF01103918244D
:104E2000B1FBF4F43249CB18A92B38BF0834314B0D
:104E3000314D03EB840304F01F04A2400366456672
:104E40008266F0BD085402581C540258305402586F
:104E500044540258585402586C5402588054025812
:104E60000179002900D170470929F0B527D20268DD
:104E7000224B9A421CBF224DAA4211D0214EB2426F
:104E80001CBF214B9A420BD0204DAA421CBF204E82
:104E9000B24205D01F4FBA421CBF0F4DAA4204D1E7
:104EA0001D4B1E4A03EB810403E01D4A02EB810403
:104EB0001C4A0123491E8B40C46602674367F0BD4C
:104EC000A00002401004024040040240700402406E
:104ED000A0040240B804024094540258100002405A
:104EE0005800024070000240805802580058025892
:104EF000F0FBFDBF00080240800802400854025841
:104F00001C54025830540258445402585854025801
:104F10006C54025880540258FC58025840590258A8
:104F2000FC08024040090240000610160006101658
:104F300001484068704700BF8400002038B5040075
:104F400009D004F18405696809B900F01BF800F084
:104F50001EF8012801D1012032BDA06A08B100F07D
:104F600027F8206800F004F800F01BF800F036BACB
:104F7000416821F4904141602068826822F02A0251
:104F80008260704700202870204601F067B8242115
:104F9000696020680268520852000260204600F0F2
:104FA00021BA2068016841F0010101602046704784
:104FB000204600F023BC2DE9F843054605F15406D0
:104FC000706B0C461746994620283ED10CB138002C
:104FD00001D101203AE000202121F0637163FFF745
:104FE000A7FF378080467780A968B1F5805F04BF4E
:104FF000286900281ABF204600272746044611E0EA
:105000000022802100F024F8D8B92868002C12BFB3
:1050100014F8011B37F8021BC1F308018162728882
:10502000511E71807088CDF8009043460028E7D16A
:105030000022402100F00CF818B9202070630020F5
:1050400004E020210320716300E00220BDE8F28328
:10505000284600F08EBC134643E800100028704735
:10506000286881684A0670472DE9F843054640F6EE
:105070000F0C2A6805F15C04D3691046076896682E
:1050800013EA0C0F03F0200107F020000DD10029D6
:1050900014D010B9F00040F19180A169002900F00E
:1050A00079812846BDE8F4430847DFF8DCC616EAF4
:1050B0000C0F04BFDFF8D4E617EA0E0F00F07E8075
:1050C0005FEAC37848BF5FEAC75E07D54FF00109C2
:1050D000C2F82090626B42F0010262639A070BD51E
:1050E000F20709D5D5F800E04FF00208CEF820808D
:1050F000626B42F0040262635A070BD5F20709D5CE
:10510000D5F800E04FF00408CEF82080626B42F042
:10511000020262631A070FD5002808BF16EA0C0FB7
:105120000AD0D5F800C00822CCF82020D4F834E00A
:105130004EF0080EC4F834E01A0509D57B0107D5F6
:105140002A684FF400671762636B43F020036363C0
:10515000626B002A31D031B108B9F00003D5A169E2
:1051600009B128468847606B29688A68530602D4CB
:1051700010F0280F1CD0284600F0D0FCFFF770FF7D
:1051800011D500F00DF9FCD1606A60B1DFF80016AE
:105190000165606AFEF7BEFF00280ED0606A016DEF
:1051A000BDE8F44308472846BDE8F24301F02AB8B9
:1051B000284601F027F800206063EBE0216901290F
:1051C00040F0A980D80600D5F90640F1A48010234C
:1051D0001362FFF745FF6AD5606ADFF8B8350168EA
:1051E00099421CBFDFF8B02591422ED0DFF8AC65A4
:1051F000B1421CBFDFF8A835994226D0DFF8A425BC
:1052000091421CBFDFF8A065B1421ED0DFF89C358B
:1052100099421CBFDFF89825914216D0DFF89465BB
:10522000B1421CBFDFF8903599420ED0DFF88C25D3
:1052300091421CBFDFF88865B14206D0DFF88435A3
:1052400099421CBFDFF88025914249688AB2002A42
:1052500035D023889A42B0D26180C069B0F5807F92
:105260001DD0296851E8001F2A6821F4807100F0E0
:1052700051FCF6D100F070FBFCD100F09EF8FCD19F
:1052800020200021206321612A6852E8001F21F0BC
:105290001001FFF7E0FEF7D1606AFEF765FD02211D
:1052A000616121886088091A89B228462FE0228826
:1052B00061886088511A00281CBF88B2002869D014
:1052C0002A46136853E8003F156823F4907300F0F2
:1052D00063F8F6D110683F4F00F1080353E8003F30
:1052E00000F108063B4046E800300028F2D12020BB
:1052F000002320632361A36100F05AFC064646E8C0
:1053000000300028F8D1022089B260611046BDE863
:10531000F44300F0B7BFD90209D5700207D54FF4A6
:10532000801328461362BDE8F24301F021B9180644
:1053300009D5390601D4300205D5E16951B32846B3
:10534000BDE8F4430847580612D5790610D52A68F7
:1053500052E8001F21F04001FFF77DFEF7D1202029
:105360000021E0622846E161BDE8F24301F001B9A5
:10537000180206D5790004D52846BDE8F24301F0AD
:10538000F9B8D80148BF002F04D52846BDE8F2433C
:1053900001F0F1B8BDE8F18345E80030002870471E
:1053A000286800F1080353E8001F00F1080221F00B
:1053B000400142E8001000287047286800F1080109
:1053C00051E8001F00F1080321F0400143E80010FC
:1053D00000287047FEFFFFEF20215160BDE83240FA
:1053E00070E200002DE9F04186B004462168DFF844
:1053F0008C0700250E68A268236906406069164381
:10540000E2691E4306431643DFF86C270E604B68C3
:10541000E06823F44053034391424B60A6691CBFEC
:10542000236A1E438F68DFF8580707403E438E60AB
:10543000CB6A606ADFF84C770FF290361B09B942ED
:1054400040EA0313CB62DFF8403748D1586D10F0C3
:10545000380000F09D80082800F0D38010284BD041
:1054600018285AD0202800F06A80282800F07A8076
:105470004FF0800C9142DFF81407DFF814E74FF487
:10548000004840F0E980BCF1020F14D0BCF1040FD9
:1054900000F0BA80BCF1080F00F0BB80BCF1100F27
:1054A00000F0BC80BCF1200F00F0C080BCF1400FC8
:1054B00000F0BE805BE101F0DCFD002800F05881C7
:1054C000616A36F81120B0FBF2F6626802EB420323
:1054D0009E4203D31103B14280F0AC8047E1DFF874
:1054E000B40681420BD100F084F9C1D8DFE807F09F
:1054F00075890415273ABBE74FF0080CBAE7DFF8C7
:10550000980681420CD100F074F9B1D8DFE807F0B9
:1055100065790405172AABE7EEE74FF0100CA9E711
:10552000DFF8E00781420DD100F063F9A0D8DFE891
:1055300007F05468050406199AE7EEE7DCE74FF038
:10554000200C97E7DFF8C00781420ED100F051F937
:10555000F2D8DFE807F042560605040788E7EEE7D1
:10556000DBE7C9E74FF0400C84E7DFF8A007814292
:1055700011D15F6D17F038070AD0082F41D0102FD6
:10558000BAD0182FC9D0202FD9D0282FEAD06FE752
:105590004FF0010C6EE7DFF8180881420CD100F0E3
:1055A00028F9F4D8DFE807F0192D070605045FE7AE
:1055B000D8E7C4E7B1E79FE7DFF8F80781420ED1EB
:1055C00000F017F9F3D8DFE807F0081C0706050418
:1055D0004EE7C7E7B3E7A0E78EE7AC464AE791425C
:1055E000F6D1986D00F00700052804D8DFE800F038
:1055F0000809070605043BE7B4E7A0E78DE77BE76A
:1056000059E74FF0040C35E703A801F041FD049879
:1056100053E7684601F068FD01984EE719688A066D
:1056200005D51F68C7F3C101C84046E7704647E784
:10563000404645E75008002110EB062051EB16616B
:10564000002301F031FFA0F54076DFF8F8178E4215
:105650001DD22768F8608BE0E1694FF6F077B1F56D
:10566000004F44D1BCF1000F12D0BCF1010F25D086
:10567000BCF1040F25D0BCF1080F27D0BCF1100FEE
:1056800029D0BCF1200F2ED0BCF1400F2DD06EE000
:1056900002F02DF900286BD000F0A4F84E0806EBBC
:1056A0004006B6FBF1F0A0F11001B9425FD207400D
:1056B000C0F3420007432068C76059E002F01FF9B9
:1056C000E8E703A801F0E4FC0498E3E7684601F08A
:1056D0000BFD0198DEE719688A06DDD51968C1F36C
:1056E000C101C840D6E77046D6E74046D4E7BCF1D2
:1056F000000F12D0BCF1010F20D0BCF1040F20D05C
:10570000BCF1080F22D0BCF1100F24D0BCF1200F47
:1057100029D0BCF1400F28D029E002F0E8F838B3D6
:1057200000F060F800EB5100B0FBF1F0A0F11001C7
:10573000B9421CD2226880B2D06019E002F0DFF8D2
:10574000EDE703A801F0A4FC0498E8E7684601F03F
:10575000CBFC0198E3E719688A06E1D51968C1F323
:10576000C101C840DBE77046DAE74046D8E70125CB
:1057700004F168000121002341800180C3600361BE
:10578000284606B0BDE8F0810100001020010004A9
:10579000BD5B0008100002402800024040000240AB
:1057A000580002407000024088000240A000024001
:1057B000B8000240100402402804024040040240A5
:1057C00058040240700402408804024001000200B4
:1057D0000400060008000A000C0010002000400031
:1057E00080000001626A616836F81230B0FBF3F0A5
:1057F00070475F6D07F00707052F704710B590F8E9
:105800002810CA0706D502685368C16A23F400331A
:105810000B43536090F82820910706D5026853681F
:10582000016B23F480330B43536090F82820510719
:1058300006D502685368416B23F480230B43536001
:1058400090F82820110706D502685368816B23F46D
:1058500000430B43536090F82820D10606D5026818
:105860009368C16B23F480530B43936090F8282016
:10587000910606D502689368016C23F400530B432C
:10588000936090F82820510610D502685368416C47
:1058900023F480130B435360436CB3F5801F05D191
:1058A0005468816C24F4C0040C43546090F82820A0
:1058B000110606D501684A68C06C22F40022024332
:1058C0004A6010BDF8B5054605F1840400206FF06C
:1058D0007E47E060FFF72CFB296806460868020750
:1058E00012D50097334600224FF40011FFF7B0FBAA
:1058F00050B1286850E8001F21F0800100F009F93C
:10590000F7D12020606018E02A681068410718D598
:105910000097334600224FF48001FFF799FB80B1D6
:10592000286850E8001F21F4907100F0F2F8F7D1D8
:1059300000F012F8FCD12020A0600021032021708B
:10594000F2BD2022202062600021A0600022E966D2
:1059500000202A672070F2BD286800F1080151E894
:10596000001F490800F10803490043E8001000281F
:1059700070472DE9F04105460E4690461F46069CAD
:105980002868C1693140B1420CBF01200020404568
:1059900033D114F1010FF3D0FFF7CAFAC01B8442D0
:1059A00000D314B90320BDE8F081286801684A07D4
:1059B000E6D50346D869010704D41A46D069010523
:1059C000DED50CE0082228461A6200F0A7F805F19F
:1059D00084000821C160002202700120E3E74FF437
:1059E000006011460862284600F098F805F184002E
:1059F0002022C26000210170D4E70020D3E770B5F7
:105A000003460020996503F15C010A80FF244A8067
:105A100088619868B0F5805F04D1186988B940F250
:105A2000FF140EE010B9186958B104E0B0F1805FBE
:105A300006D1186908B97F2403E03F20888001E07F
:105A400000248C800020222548630D631C6804F12B
:105A5000080050E8004F1D6844F0010405F10806F5
:105A600046E800400028F1D18868B0F1005F28D1F5
:105A70008C89A24225D39A68B2F5805F04BF186969
:105A8000002803D10FF231328A610BE00FF2952426
:105A90008C61186930B100F037F841F4807100F082
:105AA00039F8F8D1186800F1080151E8001F00F139
:105AB000080441F0805144E800100028F2D1002091
:105AC00070BD9A68B2F5805F04BF186900280DD1D7
:105AD0000FF24D128A61186850E8001F41F0200152
