:020000040800F2
:10000000584B0020D51B010851180108531801084E
:100010005518010857180108591801080000000078
:100020000000000000000000000000005B18010854
:100030005D180108000000005F1801086118010840
:10004000E51B0108E91B0108ED1B0108F11B010874
:10005000F51B0108F91B0108FD1B0108011C010823
:10006000051C0108091C01080D1C01086518010880
:100070006B180108111C0108151C0108191C010846
:100080001D1C0108211C010871180108251C01080C
:10009000291C01082D1C0108311C0108351C010810
:1000A000391C01083D1C0108411C0108451C0108C0
:1000B000491C010883180108891801084D1C010812
:1000C000511C0108551C0108591C01085D1C010840
:1000D000611C01088F180108651C0108691C0108D2
:1000E000951801086D1C010800000000711C010832
:1000F000751C0108791C01087D1C0108811C010880
:10010000851C0108891C01088D1C0108AB18010819
:10011000911C0108951C0108B1180108991C0108DF
:10012000C3180108C91801089D1C0108A11C010879
:10013000A51C0108A91C0108AD1C0108B11C01087F
:1001400000000000000000000000000000000000AF
:10015000B51C0108B91C0108BD1C0108CF18010815
:10016000C11C0108C51C0108C91C0108CD1C0108DF
:10017000D11C0108D51C0108D91C0108DD1C01088F
:10018000E11C0108E51C0108E91C0108D51801085B
:10019000ED1C0108F11C0108F51C0108F91C0108FF
:1001A000FD1C0108011D0108051D0108091D0108AC
:1001B0000D1D0108111D0108151D0108191D01085B
:1001C0001D1D0108211D0108251D0108291D01080B
:1001D0002D1D0108311D0108351D0108391D0108BB
:1001E0003D1D0108411D0108451D0108491D01086B
:1001F0004D1D0108511D0108551D0108591D01081B
:100200005D1D0108611D0108651D0108691D0108CA
:100210006D1D0108711D0108751D0108791D01087A
:100220007D1D0108811D0108851D010800000000D9
:10023000DB180108891D0108000000008D1D010860
:10024000911D0108951D0108991D01089D1D0108BA
:10025000A11D0108A51D0108A91D0108AD1D01086A
:10026000B11D0108B51D0108B91D0108BD1D01081A
:10027000C11D0108C51D0108C91D010800000000BD
:10028000CD1D0108D11D0108D51D01080000000089
:1002900000000000D91D010800000000000000005F
:1002A0000000000000000404040404000004000036
:1002B00014140A00000000000000000000000A0AF8
:1002C0001F0A0A1F0A0A000000040E1505060C1476
:1002D000150E0400000012150D152E2C2A12000018
:1002E0000000040A0A361515291600000202010052
:1002F00000000000000000001008080404040404CA
:100300000808100002040408080808080404020091
:1003100000000004150E0E15040000000000000887
:10032000083E080800000000000000000000000077
:100330000202010000000000003F00000000000079
:10034000000000000000000000020000002010106B
:10035000080804040202010000000E11111111111D
:10036000110E00000000040604040404040E000042
:1003700000000E1111080402011F000000000E1100
:10038000100C1010110E00000000080C0C0A091FC0
:10039000081C000000001F01010F1110110E0000C9
:1003A00000000C12010D1311110E000000001E10B0
:1003B000080804040404000000000E11110E1111BD
:1003C000110E000000000E11111916100906000090
:1003D0000000000004000000000400000000000015
:1003E00000040000000404000000100804020204DD
:1003F00008100000000000003F003F000000000067
:1004000000000204081010080402000000000E1191
:10041000110804040004000000001C22292D2D1DD9
:10042000221C0000000004040C0A0A1E1233000003
:1004300000000F12120E1212120F000000001E1107
:1004400001010101110E000000000F121212121220
:10045000120F000000001F120A0E0A02121F0000F5
:1004600000001F120A0E0A020207000000001C1200
:1004700001013911120C000000003312121E121279
:100480001233000000001F0404040404041F0000D1
:1004900000003E080808080808080907000037128D
:1004A0000A060A12123700000000070202020202C6
:1004B000223F000000003B1B1B1B151515350000DB
:1004C00000003B1216161A1A1217000000000E1137
:1004D00011111111110E000000000F12120E020274
:1004E0000207000000000E1111111117190E18005B
:1004F00000000F12120E0A121237000000001E1127
:1005000001060810110F000000001F150404040468
:10051000040E00000000331212121212120C00001E
:1005200000003312120A0A0C040400000000151522
:1005300015150E0A0A0A000000001B0A0A04040A24
:100540000A1B000000001B0A0A0A0404040E000033
:1005500000001F0908040402121F00001C04040408
:100560000404040404041C00000202040404080837
:10057000081010000E0808080808080808080E00EF
:10058000040A00000000000000000000000000005D
:10059000000000000000003F020400000000000016
:1005A0000000000000000000000C121C123C0000C3
:1005B00000030202020E1212120E000000000000E0
:1005C000001C1202120C000000181010101C121255
:1005D000123C000000000000000C121E021C000073
:1005E00000182404041E0404041E0000000000007F
:1005F000003C120C021C221C00030202020E12120A
:10060000123700000004040000060404040E000079
:1006100000080800000C0808080808070003020288
:10062000021A0A060A130000000704040404040462
:10063000041F000000000000000F15151515000034
:1006400000000000000F121212370000000000002E
:10065000000C1212120C000000000000000F121219
:10066000120E020700000000001C1212121C1038AB
:1006700000000000001B060202070000000000004E
:10068000001E020C101E000000000004041E0404E2
:10069000041C000000000000001B1212123C0000AD
:1006A00000000000001B0A0A040400000000000013
:1006B0000015150E0A0A000000000000001B0A04C5
:1006C0000A1B000000000000003312120C08040393
:1006D00000000000001E0804041E0000180808089E
:1006E000080C08080808180008080808080808087E
:1006F00008080808060404040408040404040600A6
:1007000016090000000000000000000000000000CA
:1007100000000000000000000000000000000008D1
:1007200008080808080800001818000000486C2491
:100730001200000000000000000000000000002483
:1007400024247F1212127F12121200000000081CD3
:100750002A2A0A0C1828282A2A1C08080000002225
:10076000251515152A585454542200000000000C79
:100770001212120A76252911916E00000006060455
:1007800003000000000000000000000000402010F6
:10079000100808080808081010204000000204088B
:1007A00008101010101010080804020000000000CB
:1007B00008086B1C1C6B080800000000000000000B
:1007C000080808087F08080808000000000000006A
:1007D0000000000000000000060604030000000006
:1007E00000000000FE00000000000000000000000B
:1007F000000000000000000006060000000080402D
:100800004020201010080804040202000000001814
:1008100024424242424242422418000000000008A2
:100820000E08080808080808083E00000000003C00
:100830004242422020100804427E00000000003C9A
:100840004242201820404042221C000000000020AC
:100850003028242422227E20207800000000007E00
:100860000202021A26404042221C0000000000380A
:100870002402021A26424242241800000000007E90
:100880002222101008080808080800000000003C98
:100890004242422418244242423C00000000001818
:1008A0002442424264584040241C000000000000E2
:1008B00000001818000000001818000000000000D8
:1008C00000000008000000000008080400000040CC
:1008D000201008040204081020400000000000005E
:1008E00000007F0000007F00000000000000000208
:1008F0000408102040201008040200000000003C02
:100900004242464020101000181800000000001C51
:10091000225A555555552D42221C00000000000852
:1009200008181414243C224242E700000000001F73
:100930002222221E22424242221F00000000007C8E
:100940004242010101010142221C00000000001F7F
:100950002242424242424242221F00000000003F27
:100960004212121E12120242423F00000000003FDB
:100970004212121E12120202020700000000003C86
:100980002222010101712122221C0000000000E747
:10099000424242427E42424242E700000000003EA4
:1009A0000808080808080808083E00000000007C45
:1009B00010101010101010101010110F0000007700
:1009C00022120A0E0A1212222277000000000007EB
:1009D0000202020202020202427F000000000077CF
:1009E000363636362A2A2A2A2A6B0000000000E30F
:1009F00046464A4A52525262624700000000001CBA
:100A00002241414141414141221C00000000003F80
:100A1000424242423E020202020700000000001C65
:100A20002241414141414D53321C60000000003FD2
:100A30004242423E1212222242C700000000007CC5
:100A40004242020418204042423E00000000007F63
:100A50004908080808080808081C0000000000E70A
:100A60004242424242424242423C0000000000E711
:100A70004242222424141418080800000000006BCD
:100A8000494949495555362222220000000000E715
:100A9000422424181818242442E70000000000779C
:100AA0002222141408080808081C00000000007E18
:100AB0002120101008040442423F0000007808087A
:100AC000080808080808080808087800000002025A
:100AD000040408080810102020204040001E1010B8
:100AE000101010101010101010101E0000384400CC
:100AF00000000000000000000000000000000000F6
:100B00000000000000000000000000FF00060800D8
:100B100000000000000000000000000000000000D5
:100B20000000003C4278444242FC00000000000308
:100B30000202021A26424242261A00000000000069
:100B40000000003844020202443800000000006047
:100B5000404040784442424264D800000000000017
:100B60000000003C427E0202423C0000000000F017
:100B70008808087E08080808083E000000000000F9
:100B80000000007C22221C023C42423C0000000388
:100B90000202023A4642424242E700000000000CD4
:100BA0000C00000E08080808083E00000000003095
:100BB00030000038202020202020221E00000003CA
:100BC00002020272120A1612227700000000000EC2
:100BD0000808080808080808083E0000000000008F
:100BE0000000007F9292929292B7000000000000F5
:100BF0000000003B4642424242E700000000000085
:100C00000000003C42424242423C00000000000022
:100C10000000001B26424242221E02070000000084
:100C20000000007844424242447840E00000000066
:100C3000000000774C040404041F000000000000C2
:100C40000000007C42023C40423E000000000000E8
:100C50000008083E080808080830000000000000EE
:100C6000000000634242424262DC000000000000DB
:100C7000000000E7422424140808000000000000DF
:100C8000000000EB494955552222000000000000F9
:100C90000000007624181818246E000000000000E0
:100CA000000000E742242414180808070000000090
:100CB0000000007E22100808447E000000C02020B2
:100CC00020202010202020202020C00010101010F4
:100CD000101010101010101010101010000608083E
:100CE0000808081008080808080806000C32C200A6
:100CF00000000000000000000000000000000000F4
:100D000000000000000000000000000000000000E3
:100D100000000000000000000000000000000000D3
:100D200000000000000000000000000000000000C3
:100D30000000000060006000600060006000600073
:100D400060004000200020002000000000000000A3
:100D50006000600060000000000000000000000073
:100D6000600660063003980188004400000000001F
:100D70000000000000000000000000000000000073
:100D80000000000000000000000000000000000063
:100D9000000000001002100210021002FE07FE0701
:100DA00008020801080108010801FE07FE07040106
:100DB0000401040104010000000000000000000024
:100DC000000040004000F00158034C03CC034C00ED
:100DD00058007000E000C001C00140034C035C03F8
:100DE0004C034801F00040004000000000000000FB
:100DF000000000000E010A019100910091005100D5
:100E000051003A00AE03A0025004500448044804C4
:100E10004804840284030000000000000000000079
:100E20000000000038006C006C006C006C006C006E
:100E30002C0098071C011A01330133016301E30000
:100E4000C308C6093C0700000000000000000000C5
:100E50000C001C001000100008000400000000003E
:100E60000000000000000000000000000000000082
:100E70000000000000000000000000000000000072
:100E800000040002000180008000400040002000BB
:100E90002000200020002000200020004000400012
:100EA000800080000001000200040000000000003B
:100EB0000200040008001000100020002000400084
:100EC0004000400040004000400040002000200062
:100ED00010001000080004000200000000000000E4
:100EE00000000000000000004000C0004000460C70
:100EF0004E0FD001F0015E0F460C40004000400054
:100F000000000000000000000000000000000000E1
:100F10000000000000000000000040004000400011
:100F200040004000FE0F40004000400040004000F4
:100F300000000000000000000000000000000000B1
:100F400000000000000000000000000000000000A1
:100F50000000000000000000000000000000000091
:100F60000C001C001000100008000400000000002D
:100F70000000000000000000000000000000000071
:100F800000000000FE07000000000000000000005C
:100F90000000000000000000000000000000000051
:100FA0000000000000000000000000000000000041
:100FB0000000000000000000000000000000000031
:100FC0001C001C001C0000000000000000000000CD
:100FD0000004000600020003000100018000800000
:100FE00040004000600020002000100010000800B9
:100FF00008000C00040006000200000000000000D1
:10100000000000000000F00098010C030C0306062D
:1010100006060606060606060606060606060C036D
:101020000C039801F0000000000000000000000028
:1010300000000000000040007C00600060006000D4
:1010400060006000600060006000600060006000A0
:1010500060006000FC0300000000000000000000D1
:10106000000000000000F8008401020306030603EC
:10107000000300018001C000600020001000080291
:1010800004020602FE030000000000000000000051
:101090000000000000007800C60086018601800183
:1010A0008001C000700080010001000300030603FE
:1010B00006038601F80000000000000000000000A8
:1010C00000000000000080018001C001A001A0011B
:1010D00090018801880184018201FE0F8001800156
:1010E00080018001E0070000000000000000000017
:1010F000000000000000FC030400040004000400E1
:101100000400F4008C01040300030003060306033B
:1011100082018401F80000000000000000000000CF
:10112000000000000000E00118030C030C000400A4
:101130000600E60116030E06060606060606040667
:101140000C021803F0000000000000000000000086
:10115000000000000000F8070C0604020401000172
:1011600000018000800040004000400060006000FE
:10117000600060006000000000000000000000004F
:10118000000000000000F8010C0306060606060633
:101190000C021C03F000C8010C0306060606060636
:1011A00006060C03F0010000000000000000000033
:1011B000000000000000F0000C010C03060206060F
:1011C0000606060606078C067806000600030003DE
:1011D0000C018C01780000000000000000000000FD
:1011E00000000000000000000000000000000000FF
:1011F000E000E000E000000000000000000000004F
:10120000E000E000E000000000000000000000003E
:1012100000000000000000000000000000000000CE
:1012200060006000000000000000000000000000FE
:10123000000060006000400020002000000000006E
:1012400000000000000400020001800040002000B7
:10125000100008000400080010002000400080007A
:101260000001000200040000000000000000000077
:10127000000000000000000000000000000000006E
:10128000FE07000000000000FE0700000000000054
:10129000000000000000000000000000000000004E
:1012A0000000000004000800100020004000800042
:1012B0000001000200040002000180004000200044
:1012C0001000080004000000000000000000000002
:1012D000000000000000E0031806040C040C0C0CD5
:1012E0000C0C00078001400040004000000000009E
:1012F000E000E000E000000000000000000000004E
:1013000000000000E00018030C02CC05640566052F
:10131000A605B604B604B604B604B602E4010C048D
:101320000C021803F00000000000000000000000A4
:10133000000000000000600060005000D00090003D
:101340009000880088010801F801040304030402E6
:10135000020202060F0F0000000000000000000063
:10136000000000000000FE008C030C030C030C03C3
:101370000C038C01FC000C030C020C060C060C0682
:101380000C060C03FE01000000000000000000003D
:10139000000000000000E00318030C060C04040425
:1013A00006000600060006000600060006040C04FF
:1013B0000C021803F0000000000000000000000014
:1013C0000000000000007F008C010C030C030C06E1
:1013D0000C060C060C060C060C060C060C060C0380
:1013E0000C038C017F0000000000000000000000E2
:1013F000000000000000FF030603060406040600C8
:1014000086008600FE008600860086000600060430
:1014100006040602FF0300000000000000000000B8
:10142000000000000000FF03060306040604060097
:1014300086008600FE008600860086000600060004
:10144000060006001F000000000000000000000071
:10145000000000000000F00018010C020C02040261
:101460000600060006000600C60F060306030C036E
:101470000C031803F0000000000000000000000052
:101480000000000000000F0F06060606060606060E
:1014900006060606FE0706060606060606060606F3
:1014A000060606060F0F0000000000000000000006
:1014B000000000000000FC036000600060006000AD
:1014C000600060006000600060006000600060001C
:1014D00060006000FC03000000000000000000004D
:1014E000000000000000F807C000C000C000C000FD
:1014F000C000C000C000C000C000C000C000C000EC
:10150000C000C000C000C60066003C000000000033
:10151000000000000000CF038601C6004600260040
:10152000160036002E006E004600C60086008601BA
:10153000060106038F070000000000000000000005
:101540000000000000001F00060006000600060064
:101550000600060006000600060006000600060457
:1015600006040602FF030000000000000000000067
:101570000000000000000707860386038E038E0329
:101580004E034E034A035A035A033A03320332030B
:101590003203120387070000000000000000000073
:1015A0000000000000008E0F0C021C021C0234021E
:1015B0003402640264024402C40284028403840389
:1015C000040304031F0200000000000000000000EC
:1015D000000000000000F00098010C030C02060659
:1015E00006060606060606060606060606060C0299
:1015F0000C039801F0000000000000000000000053
:10160000000000000000FF000603060606060606AE
:10161000060606068603FE00060006000600060013
:10162000060006001F00000000000000000000008F
:10163000000000000000F00098010C030C020606F8
:1016400006060606060606060606060676064C0288
:10165000CC039801F00080070003000000000000A8
:10166000000000000000FF0106030606060606064D
:1016700006060603FE004600C60086008601060335
:10168000060306060F0E0000000000000000000028
:10169000000000000000F8020C030602060206002B
:1016A0000E003C00F800E00380030007020602067B
:1016B00006060C03F001000000000000000000001E
:1016C000000000000000FE0762046108610860007D
:1016D000600060006000600060006000600060000A
:1016E00060006000F8010000000000000000000041
:1016F0000000000000001E070C020C020C020C028D
:101700000C020C020C020C020C020C020C020C0269
:101710000C021801F00000000000000000000000B2
:101720000000000000000F070602040104010C0184
:101730000C0188008800980098005000500070004C
:101740003000200020000000000000000000000029
:10175000000000000000F70E620442044604460444
:1017600064026402E402E4029C029C019801980174
:1017700088018800880000000000000000000000D0
:101780000000000000009E070C01080118019000F5
:10179000B0006000200060006000D0009000880170
:1017A000080104038E070000000000000000000094
:1017B0000000000000000F0F060404020C020801E4
:1017C0001801B800B00070006000600060006000A8
:1017D00060006000F8010000000000000000000050
:1017E000000000000000FC070C020603020180015B
:1017F0008000400040002000200010001800080475
:101800000C040402FE0300000000000000000000C1
:10181000E003200020002000200020002000200005
:1018200020002000200020002000200020002000B8
:101830002000200020002000E00300000000000045
:101840000000000004000400080008001000100060
:1018500010002000200040004000C00080008000F8
:10186000000100010002000200020004000000006C
:101870007C0040004000400040004000400040002C
:101880004000400040004000400040004000400058
:1018900040004000400040007C000000000060006C
:1018A000900008010000000000000000000000009F
:1018B0000000000000000000000000000000000028
:1018C0000000000000000000000000000000000018
:1018D0000000000000000000000000000000000008
:1018E00000000000000000000000000000000000F8
:1018F00000000000000000000000FF0F00000000DA
:10190000180060000000000000000000000000005F
:1019100000000000000000000000000000000000C7
:1019200000000000000000000000000000000000B7
:1019300000000000000000000000000000000000A7
:10194000F0010C030C030003E0031C030E03060369
:1019500006038E0B7C0E000000000000000000005B
:101960000000000008000E000C000C000C000C0031
:10197000CC013C031C060C060C060C060C060C06DF
:101980000C021C03E4010000000000000000000045
:101990000000000000000000000000000000000047
:1019A000F0008C018C01860106000600060006028C
:1019B0000C020C01F000000000000000000000001C
:1019C000000000000002C003000300030003000346
:1019D00078038C030C0306030603060306030603C1
:1019E00004038C07780100000000000000000000E4
:1019F00000000000000000000000000000000000E7
:101A0000E001180308020C060C06FC070C000C0091
:101A100018041802E00100000000000000000000AF
:101A2000000000000000C0036006300630003000F7
:101A3000FE01300030003000300030003000300057
:101A400030003000FC010000000000000000000039
:101A50000000000000000000000000000000000086
:101A6000F007D8068C018C018C019801F8000C005D
:101A7000FC00CC03060306038E03F8000000000000
:101A80000000000008000E000C000C000C000C0010
:101A9000EC011C030C030C030C030C030C030C03E0
:101AA0000C030C039E070000000000000000000073
:101AB0000000000000006000600000000000400026
:101AC0007C006000600060006000600060006000FA
:101AD00060006000FC030000000000000000000047
:101AE000000000000000C001C00100000000000173
:101AF000F00180018001800180018001800180016E
:101B00008001800180018001CC007C000000000089
:101B10000000000008000E000C000C000C000C007F
:101B20008C038C008C004C006C005C008C008C01E1
:101B30000C010C039E0700000000000000000000E4
:101B40000000000040007C00600060006000600059
:101B50006000600060006000600060006000600085
:101B600060006000FC0300000000000000000000B6
:101B70000000000000000000000000000000000065
:101B80003707EE066606660666066606660666069B
:101B900066066606FF0F000000000000000000005F
:101BA0000000000000000000000000000000000035
:101BB000EE011C030C030C030C030C030C030C03BD
:101BC0000C030C039E070000000000000000000052
:101BD0000000000000000000000000000000000005
:101BE000F00098010C030606060606060606060621
:101BF0000C030C03F00000000000000000000000D7
:101C000000000000000000000000000000000000D4
:101C1000EE011C030C060C060C060C060C060C064A
:101C20000C031C03EC010C000C003E000000000043
:101C300000000000000000000000000000000000A4
:101C400078028C030C03060306030603060306034F
:101C500004038C03780300030003C00700000000A6
:101C60000000000000000000000000000000000074
:101C70009F035806380618001800180018001800AE
:101C800018001800FF000000000000000000000025
:101C90000000000000000000000000000000000044
:101CA000F0031C030C020C023800F000C003040314
:101CB00004038C03FC010000000000000000000091
:101CC0000000000000000000200020003000300074
:101CD000FE013000300030003000300030003000B5
:101CE00030023002E00100000000000000000000AF
:101CF00000000000000000000000000000000802DA
:101D00008E030C030C030C030C030C030C030C03D9
:101D10000C039C0778010000000000000000000098
:101D200000000000000000000000000000000000B3
:101D30001E070C020801080118019000B000B00055
:101D400060006000200000000000000000000000B3
:101D50000000000000000000000000000000000083
:101D6000F70E6204460464026402EC029C019801CE
:101D70009801980108000000000000000000000029
:101D80000000000000000000000000000000000053
:101D9000BC0718011001B00060006000E000900076
:101DA000080108039E07000000000000000000007A
:101DB0000000000000000000000000000000000023
:101DC0009E0708010801080190009000B000600023
:101DD000600060002000200024001C0000000000C3
:101DE00000000000000000000000000000000000F3
:101DF000FC018401C400440060002000300018028F
:101E000008020C03FC0100000000000000000000BC
:101E1000000380008000800080008000800080003F
:101E20008000400020004000800080008000800092
:101E3000800080008000800000030000400040001F
:101E40004000400040004000400040004000400092
:101E50004000400040004000400040004000400082
:101E600040004000400040004000400000000000F2
:101E70000C001000100010001000100010001000E6
:101E80001000200040002000100010001000100082
:101E900010001000100010000C00000000001C00DA
:101EA0002204C204800300000000000000000000C3
:101EB0000000000000000000000000000000000022
:101EC0000000000000000000000000000000000012
:101ED0000000000000000000000000000000000002
:101EE00000000000000000000000000000000000F2
:101EF00000000000000000000000000000000000E2
:101F000000000000000000000000000000000000D1
:101F1000000000000000C001C001C001C001C001FC
:101F2000C001C0018000800080008000800080002F
:101F3000800000000000000000008001C003C0031A
:101F40008001000000000000000000000000000010
:101F50000000E01CE01CF01E700E3807180308019A
:101F600084000000000000000000000000000000ED
:101F70000000000000000000000000000000000061
:101F80000000000000000000000000000000000051
:101F90000000000000000000201020102010201081
:101FA0002010FE7FFE7F100810081008100810088F
:101FB00010081008FE7FFE7F0804080408040804C7
:101FC0000804000000000000000000000000000005
:101FD0000000000000010001C00760191031183135
:101FE0001839183938017001E001C0038007000F6B
:101FF000001D003900311C311C310C310C11180D41
:10200000E0070001000100010000000000000000E6
:1020100000000000000000001C1036186308630C6C
:1020200063046304630263026301361D9C378022EC
:10203000806340634063206320633063102218365E
:10204000081C00000000000000000000000000006C
:102050000000000000000000F00098018C018C01DD
:102060008C018C018C00CC007800183E1C083608CE
:10207000320863046304C304C303834306438E2608
:10208000781C0000000000000000000000000000BC
:1020900000001C003C003C003000300010000C0030
:1020A000060000000000000000000000000000002A
:1020B0000000000000000000000000000000000020
:1020C0000000000000000000000000000000000010
:1020D00000000040002000100008000C0004000672
:1020E0000003000300038001800180018001800162
:1020F0008001800180010003000300030006000648
:10210000000C00080010002000400000000000004B
:1021100000000200040008001000300020006000F1
:10212000C000C000C00080018001800180018001EA
:10213000800180018001C000C000C000600060001C
:102140003000100008000400020000000000000041
:1021500000000000000000000000000000018003FB
:10216000800300011C713C79783DC0070001C00765
:10217000783D3C791C7100018003800380010000E0
:10218000000000000000000000000000000000004F
:10219000000000000000000000000000000000013E
:1021A000000100010001000100010001FC7F0001AD
:1021B0000001000100010001000100010000000019
:1021C000000000000000000000000000000000000F
:1021D00000000000000000000000000000000000FF
:1021E00000000000000000000000000000000000EF
:1021F0000000000000000000000000001C003C0087
:102200003C003000300010000C0006000000000010
:1022100000000000000000000000000000000000BE
:10222000000000000000000000000000FE7F000031
:10223000000000000000000000000000000000009E
:10224000000000000000000000000000000000008E
:10225000000000000000000000000000000000007E
:10226000000000000000000000000000000000006E
:102270000000000000000000000018003C003C00CE
:102280001800000000000000000000000000000036
:10229000000000400060002000300010001800081E
:1022A000000C000400060002000300018001800011
:1022B000C00040006000200030001000180008003E
:1022C0000C000400060002000000000000000000F6
:1022D0000000000000000000C007600C301818303B
:1022E000183018200C600C600C600C600C600C60E6
:1022F0000C600C600C601820183018303018600C1E
:10230000C007000000000000000000000000000006
:10231000000000000000000000018001F8018001C1
:1023200080018001800180018001800180018001A5
:102330008001800180018001800180018001C00353
:10234000F81F000000000000000000000000000076
:102350000000000000000000E007101C0818043016
:1023600004300C300C30003000180008000400026B
:102370000001800040002020102008200430FC1FB5
:10238000FC1F000000000000000000000000000032
:102390000000000000000000E003180E0C0C0C18F8
:1023A0000C180C180018000C0006C003000E0018D2
:1023B0000010003000300C300C300C100C18180CD1
:1023C000E00300000000000000000000000000002A
:1023D0000000000000000000000C000E000E000FC6
:1023E000800E800E400E600E200E100E100E080E95
:1023F000040E040EFE7F000E000E000E000E000EF6
:10240000000EC07F0000000000000000000000007F
:102410000000000000000000F03FF03F100010003E
:10242000100008000800C807280C18180810003011
:102430000030003000300C300C3004180418080C48
:10244000F003000000000000000000000000000099
:102450000000000000000000800FC010203010308D
:102460001800180008000C008C0F6C183C301C6021
:102470000C600C600C600C60186018203030601824
:10248000C007000000000000000000000000000085
:102490000000000000000000F83FF83F1C100C088E
:1024A000040804040004000200020001000100010D
:1024B000800080008000C000C000C000C000C000DC
:1024C000C00000000000000000000000000000004C
:1024D0000000000000000000E007300C18180C306D
:1024E0000C300C301C3038187008E007B007180E9C
:1024F0000C1C063806300630063006300C18180C56
:10250000E0030000000000000000000000000000E8
:102510000000000000000000E00318040C080C1884
:102520000610063006300630063006380C3C1836E9
:10253000F03100300018001800180C0C0C060C03C9
:10254000F00100000000000000000000000000009A
:10255000000000000000000000000000000000007B
:102560000000000000008001C003C00380010000E3
:10257000000000000000000000008001C003C00354
:1025800080010000000000000000000000000000CA
:10259000000000000000000000000000000000003B
:1025A000000000000000C000C000000000000000AB
:1025B0000000000000000000000000000000C0005B
:1025C000C0008000800040004000000000000000CB
:1025D00000000000000000200010000800040006B9
:1025E00000038001C0006000300018000C001800DB
:1025F00030006000C00080010003000600040008F5
:10260000001000200000000000000000000000009A
:1026100000000000000000000000000000000000BA
:10262000000000000000FE7F00000000000000002D
:102630000000FE7F0000000000000000000000001D
:10264000000000000000000000000000000000008A
:1026500000000000000004000800100020006000DE
:10266000C000800100030006000C001800300018B4
:10267000000C000600038001C00060002000100074
:10268000080004000000000000000000000000003E
:10269000000000000000C0073018083008600C601F
:1026A0001C601C601C600030001C000600018000E3
:1026B000800080008000000000008001C003C00393
:1026C0008001000000000000000000000000000089
:1026D0000000000000000000C00760181030182043
:1026E0000C2F8C4D864CC64CC64C664C66446644DA
:1026F000662666266615CC1C0C400820183030185B
:10270000C007000000000000000000000000000002
:102710000000000000000001C001C001C001400134
:102720006003200320032003300610061006100665
:10273000F80F080C080C080C0C0C041804180618E8
:102740001F7C0000000000000000000000000000EE
:102750000000000000000000FE07181C18381830A8
:102760001830183018301818180CF80718181830C6
:102770001820186018601860186018601830181851
:10278000FE0F00000000000000000000000000003C
:102790000000000000000000C02760381030182042
:1027A0000C400C400400060006000600060006006F
:1027B0000600060006000C400C400C2018303018B3
:1027C000C007000000000000000000000000000042
:1027D0000000000000000000FE03180E181818305A
:1027E0001830183018601860186018601860186089
:1027F0001860186018601830183018101818180E63
:10280000FE030000000000000000000000000000C7
:102810000000000000000000FE3F18301820186083
:102820001840180018081808180CF80F180C180889
:102830001808180018001800184018401820183000
:10284000FE3F00000000000000000000000000004B
:102850000000000000000000FE7F1870184018C043
:1028600018801800181018101818F81F18181810C9
:102870001810180018001800180018001800180088
:102880007E000000000000000000000000000000CA
:102890000000000000000000C013701C1010181091
:1028A0000C200C20040006000600060006000600AE
:1028B00006FC063006300C300C301830183030086A
:1028C000C007000000000000000000000000000041
:1028D00000000000000000003F7E0C180C180C18CF
:1028E0000C180C180C180C180C180C18FC1F0C18D1
:1028F0000C180C180C180C180C180C180C180C18B8
:102900003F7E00000000000000000000000000000A
:102910000000000000000000F81F8001800180011D
:10292000800180018001800180018001800180019F
:10293000800180018001800180018001800180018F
:10294000F81F000000000000000000000000000070
:102950000000000000000000E07F00060006000606
:102960000006000600060006000600060006000637
:102970000006000600060006000600060006000627
:10298000000600060E060E038E01FC00000000008B
:1029900000000000000000007E7C181818081804D1
:1029A00018061802180198019801D801B8033803D5
:1029B00018071806180E180C181C1818183018309C
:1029C0007EFC00000000000000000000000000008D
:1029D00000000000000000007E0018001800180031
:1029E0001800180018001800180018001800180027
:1029F0001800180018001800184018401820183047
:102A0000FE3F000000000000000000000000000089
:102A100000000000000000001FF81C381C381C38A3
:102A20001C3C3434343434343436743264326432DA
:102A300064326431C431C431C431C430C4308430F0
:102A40009FFC0000000000000000000000000000EB
:102A500000000000000000001F7C1C103C1034101F
:102A6000341074106410E410C410C4118411841361
:102A7000041304170416041E041C041C041C04186C
:102A80001F1800000000000000000000000000000F
:102A90000000000000000000C003300C18180810EF
:102AA0000C300C300660066006600660066006604A
:102AB0000660066006600C200C3008101818300CF8
:102AC000C003000000000000000000000000000043
:102AD0000000000000000000FE0F181818301860F9
:102AE000186018601860186018301818F80F18006F
:102AF0001800180018001800180018001800180016
:102B00007E00000000000000000000000000000047
:102B10000000000000000000C003300C18180C106A
:102B20000C300C20066006600660066006600660D9
:102B3000066006600660E4612C331C321816300E05
:102B4000C007004C007C00380000000000000000BE
:102B50000000000000000000FE07181C18381830A4
:102B60001830183018301818180CF8079803180384
:102B7000180718061806180E180C180C181C181828
:102B80007E7800000000000000000000000000004F
:102B90000000000000000000E027303818300C2052
:102BA0000C200C000C0018007800E003800F001EC1
:102BB0000038007000600460046008601830381845
:102BC000C80F00000000000000000000000000002E
:102BD0000000000000000000FC3F8C218461824165
:102BE000824180018001800180018001800180019B
:102BF00080018001800180018001800180018001CD
:102C0000E0070000000000000000000000000000DD
:102C100000000000000000003F7C0C100C100C10A5
:102C20000C100C100C100C100C100C100C100C10C4
:102C30000C100C100C100C100C100C1008083804A0
:102C4000E0030000000000000000000000000000A1
:102C500000000000000000003EF818201820182096
:102C60003010301030103010600860086008E00C40
:102C7000C004C004C00480038003800380030001FB
:102C80000001000000000000000000000000000043
:102C90000000000000000000DFF38661862186212D
:102CA0008C210C218C238C138C138C134C135812F5
:102CB0005816580E380E380E380E300C100410040A
:102CC00010040000000000000000000000000000F0
:102CD00000000000000000007E3E180838083004A4
:102CE000300470026002E001C001C0018001800375
:102CF0004003400720062006100C100C0818081886
:102D00003E7C000000000000000000000000000009
:102D100000000000000000007E7C1C101810180845
:102D20003008300C700460046002C002C002C001B0
:102D3000800180018001800180018001800180018B
:102D4000E00700000000000000000000000000009C
:102D50000000000000000000F83F18180818040CDC
:102D6000040E00060007000380038001C001C000BC
:102D7000E000600070003000382018201C100C1893
:102D8000FE1F000000000000000000000000000026
:102D90000000C03F400040004000400040004000B4
:102DA0004000400040004000400040004000400023
:102DB0004000400040004000400040004000400013
:102DC000400040004000C03F000000000000000044
:102DD000000000000000080018001800100030007B
:102DE0002000600060004000C00080008001800181
:102DF000000100030002000600060004000C0008A9
:102E00000018001800100030002000000000000032
:102E10000000FC03000200020002000200020002A7
:102E20000002000200020002000200020002000292
:102E30000002000200020002000200020002000282
:102E4000000200020002FC0300000000000000007D
:102E500000008007C00620081010000000000000DD
:102E60000000000000000000000000000000000062
:102E70000000000000000000000000000000000052
:102E80000000000000000000000000000000000042
:102E90000000000000000000000000000000000032
:102EA0000000000000000000000000000000000022
:102EB0000000000000000000000000000000000012
:102EC00000000000000000000000FFFF0000000004
:102ED00000007800C00000010000000000000000B9
:102EE00000000000000000000000000000000000E2
:102EF00000000000000000000000000000000000D2
:102F000000000000000000000000000000000000C1
:102F100000000000000000000000000000000000B1
:102F2000000000000000F00318060C0C0C0C000C54
:102F3000800F700C1C0C0C0C060C060C064C0C4F75
:102F4000F838000000000000000000000000000051
:102F500000000000000010001E00180018001800FB
:102F6000180018001800180FD8183830386018608A
:102F700018601860186018601860182038307818C9
:102F8000C807000000000000000000000000000072
:102F90000000000000000000000000000000000031
:102FA000000000000000C007700C181818180C185A
:102FB0000C000C000C000C000C201820181030081D
:102FC000C00700000000000000000000000000003A
:102FD0000000000000000010001E0018001800187B
:102FE000001800180018E01B301C181818180C18CE
:102FF0000C180C180C180C180C180818181C307A1F
:10300000E0090000000000000000000000000000D7
:1030100000000000000000000000000000000000B0
:10302000000000000000C007300C181808100C3019
:103030000C30FC3F0C000C000C001820181070180D
:10304000C0070000000000000000000000000000B9
:103050000000000000000000003E80C380C0C0C02F
:10306000C000C000C000FC1FC000C000C000C00005
:10307000C000C000C000C000C000C000C000C00050
:10308000F80F000000000000000000000000000039
:103090000000000000000000000000000000000030
:1030A000000000000000C077306C101818181818C5
:1030B00018181018300CF00718001800F00FF03F27
:1030C00008700C600C600C603838E00F00000000E5
:1030D00000000000000010001E001800180018007A
:1030E000180018001800980FD81838301830183009
:1030F0001830183018301830183018301830183090
:103100007EFC000000000000000000000000000045
:103110000000000000000000800380038003000026
:10312000000000000001F8018001800180018001A1
:103130008001800180018001800180018001800187
:10314000F81F000000000000000000000000000068
:1031500000000000000000000038003800380000C7
:10316000000000000010801F001800180018001850
:10317000001800180018001800180018001800188F
:10318000001800180018180C1806F00300000000C2
:1031900000000000000010001E00180018001800B9
:1031A000180018001800183E180C1806180318010B
:1031B0009801D801380318071806180C181C18189D
:1031C0007E7C000000000000000000000000000005
:1031D0000000000000000001F80180018001800172
:1031E00080018001800180018001800180018001D7
:1031F00080018001800180018001800180018001C7
:10320000F81F0000000000000000000000000000A7
:1032100000000000000000000000000000000000AE
:10322000000000000800EE1C9C338C318C318C3186
:103230008C318C318C318C318C318C318C318C31A6
:10324000DE7B000000000000000000000000000025
:10325000000000000000000000000000000000006E
:103260000000000010001E0FD81838301830183039
:10327000183018301830183018301830183018300E
:103280007EFC0000000000000000000000000000C4
:10329000000000000000000000000000000000002E
:1032A000000000000000C007701C103018300C60D7
:1032B0000C600C600C600C600C601830183030181A
:1032C000C007000000000000000000000000000037
:1032D00000000000000000000000000000000000EE
:1032E0000000000010009E0F581838301820186099
:1032F0001860186018601860186018303830781836
:10330000980718001800180018007E000000000040
:1033100000000000000000000000000000000000AD
:10332000000000000000C023303C183818300C307A
:103330000C300C300C300C300C3008301838303C6D
:10334000E033003000300030003000FC00000000AE
:10335000000000000000000000000000000000006D
:103360000000000060007E3C60666061E000E000FC
:10337000600060006000600060006000600060004D
:10338000FE07000000000000000000000000000038
:10339000000000000000000000000000000000002D
:1033A000000000000000E027303818301820180016
:1033B0007000E003800F001C043004300C301C1837
:1033C000EC0F000000000000000000000000000002
:1033D00000000000000000000000000080008000ED
:1033E0008000C000E000FC1FC000C000C000C000A2
:1033F000C000C000C000C000C000C020C0208011BC
:10340000000F0000000000000000000000000000AD
:1034100000000000000000000000000000000000AC
:103420000000000010201E3C1830183018301830F2
:10343000183018301830183018301830183830F468
:10344000E013000000000000000000000000000089
:10345000000000000000000000000000000000006C
:103460000000000000007E3C1818180838083004DE
:103470003004700260026002E001C001C001C000BF
:1034800080000000000000000000000000000000BC
:10349000000000000000000000000000000000002C
:1034A000000000000000DFF78E630C238C238C23C8
:1034B0009813981358165816700E700E700E20043C
:1034C00020040000000000000000000000000000D8
:1034D00000000000000000000000000000000000EC
:1034E000000000000000FC3E70087004E004C00210
:1034F000C0018003800340076006200C100C1818E0
:103500003E7E0000000000000000000000000000FF
:1035100000000000000000000000000000000000AB
:103520000000000000007E7C1818180830083008E1
:10353000300460046004C002C002C0028001800147
:1035400080018000800080004C003C0000000000F2
:10355000000000000000000000000000000000006B
:10356000000000000000FC1F0C0C040E0406000309
:1035700080038001C000E0007020302038301C182B
:10358000FC1F000000000000000000000000000020
:1035900000000030000800040004000400040004DF
:1035A0000004000400040004000400028001000282
:1035B00000040004000400040004000400040004EB
:1035C00000040004000400080030000000010001B5
:1035D00000010001000100010001000100010001E3
:1035E00000010001000100010001000100010001D3
:1035F00000010001000100010001000100010001C3
:1036000000010001000100010001000100000000B4
:1036100000000C00100020002000200020002000EE
:1036200020002000200020002000400080014000F9
:10363000200020002000200020002000200020008A
:1036400020002000200010000C00000000003800C6
:10365000C400864002610022001C0000000000003F
:10366000000000000000000000000000000000005A
:10367000000000000000000000000000000000004A
:103680000000000000000000000000004178007809
:1036900007E0C178827842EA01224178007841EA65
:1036A000022140EA0120704730B5C279847944EAAA
:1036B0000224427942EA0422047944EA0224C278CC
:1036C00042EA0422250E2B02847843EA126344EA7C
:1036D0000224427800781D0245EA146542EA042279
:1036E0002B0243EA126140EA022030BD0170090A50
:1036F000417070470170090A4170090A8170090A16
:10370000C17070470270120A42EA03621B0A4270DB
:10371000120A42EA03621B0A8270120A42EA036238
:103720001B0AC270120A42EA03620271120A427153
:10373000120A8271120AC27170472AB111F8013B54
:10374000521E00F8013BF9D17047521E00F8011BD0
:10375000FBD1704710B5034613F8014B11F8010B6C
:10376000201A521E01D00028F6D010BD00E0401CE7
:103770000278002A18BF8A42F9D110467047F0B586
:10378000024600230024874D1768D2F808C005EBD5
:103790000416306870B1B84204BF7068604502BF5B
:1037A000B668106B864206D1022C0AD193B9022961
:1037B00005D10FE00123641C022CE8D3F4E71220AA
:1037C000F0BD29B905EB04108289B2F5807F01D1E3
:1037D0001020F0BD0020F0BD2DE9F0410246714EF1
:1037E00000239468156806F1080806F1040C180116
:1037F0003758AF4204BF5CF80070A74202BF58F8C8
:103800000000176BB84202D05B1C012BEFD9022BD2
:1038100011D13068002300281EBF01233069002821
:103820000ED1180137183D607C60126B06F1080458
:1038300022500020B88106EB0312908929B108B10B
:10384000002005E04FF4807000E0401C9081581C7F
:10385000BDE8F081401E022810B513D20001514985
:103860000A189389B3F5807F01D01C0002D1002390
:10387000938103E05B1E93819BB20BB900220A5037
:10388000002010BD022010BD30B50021454A0025A2
:103890000B01D458844208BFD550491C0129F7D9DF
:1038A00030BDF8B505460024E878F0B1AE6B687815
:1038B000012305F13C01324602F0E0F908B1012490
:1038C00013E0E96A6A6AE870711A91420DD2AF7822
:1038D00009E0686A012305F13C017F1E86196878BA
:1038E000324602F0CBF9012FF3D82046F2BD70B575
:1038F00004460D46A06B0026854210D02046FFF7F7
:10390000D0FF06000BD1607801232A4604F13C0168
:1039100002F0AEF910B14FF0FF350126A563304635
:1039200070BD38B50446FFF7BCFF050037D12078DD
:10393000032804BF217901292AD1A289002104F199
:103940003C00FFF702FF4AF6552104F23A20FFF748
:10395000CDFE154904F13C00FFF7CCFE134904F5F8
:103960000870FFF7C7FEE16904F50970FFF7C2FEB2
:10397000A16904F50A70FFF7BDFEA26A6078012311
:1039800004F13C01521CA26302F078F9002020717E
:1039900060780022002102F07FF900B1012528465D
:1039A00032BD0000CC0A0020525261417272416166
:1039B000026A891E921E914201D3002070474289FB
:1039C000406B02FB01010846704700002DE9F843F7
:1039D0000D460746012D3E6840F28880306A8542D8
:1039E00080F0848031784FF0FF344FEA8508491E1B
:1039F0000329F5D8DFE801F0022C4049B08905EB36
:103A00005507F16AB7FBF0F000F082F800286ED19C
:103A1000B08907F1010806F13C02B7FBF0F100FBA9
:103A20001177F16AB8FBF0F041183046D75DFFF727
:103A30005EFF00285BD1B089EB0700F0F1F810F8C9
:103A4000082047EA022754BFC7F30B043C094EE0A5
:103A5000B289F16A520800F059F8002847D1B089BC
:103A60006D00B5FBF0F100FB115506F13C00284458
:103A7000FFF70CFE04463AE000F045F8002836D186
:103A800000F038F820F0704431E0D7E90401002953
:103A900008BF00282AD0BA68401E61F10001002347
:103AA000A5EB0209B28902F005F971896A1C6FF071
:103AB0000043B0FBF1F0F979022904D1484515D350
:103AC000814505D108E0032904D1B969894501D2AE
:103AD00014460CE0F86908B11C4608E000F013F841
:103AE00028B900F007F820F0004400E00124204647
:103AF000BDE8F283B089B8FBF0F100FB118806F154
:103B00003C004044C5E5B289F16A9208B5FBF2F089
:103B100041183046EBE600002DE9F8430D46022738
:103B2000022D0646144670D3306A85426DD2317834
:103B3000491E032969D8DFE801F0023C4B4BB089EC
:103B400005EB5509F16AB9FBF0F0FFF7E1FF07005B
:103B50005BD1B08909F10108EA07B9FBF0F100FB7C
:103B6000119906F13C00484443BF017801F00F0170
:103B700041EA0411214601700121B089F170F16A16
:103B8000B8FBF0F0FFF7C4FF07003ED1B089EA07A9
:103B900000F046F8404448BF240906D40178240ABE
:103BA00004F00F0401F0F0010C4304700120F070E8
:103BB0002BE0B289F16A5208FFF7A8FF070024D171
:103BC000B0896D00A1B200F023F8FFF78FFD1AE075
:103BD000FFF799FF070018D13078AD0004280CD00A
:103BE000B08906F13C02B5FBF0F100FB1150104426
:103BF000FFF74FFD000F60F31F74B089214600F0FE
:103C000007F8FFF777FD0121F1703846BDE8F28330
:103C1000B5FBF0F200FB125506F13C00284470475A
:103C2000B8FBF0F100FB118806F13C0070472DE96C
:103C3000F84305469046A889891E6E6BCA0801F0B4
:103C400007019946B2FBF0F7BE1900FB17270120C8
:103C500000FA01F409E06400E1B281B9A989012404
:103C60007F1C8F420BD300278046314600F009FFAE
:103C7000761C08B9404602E00120BDE8F283E9194C
:103C800091F83C2014EA020318BF0123994507D09C
:103C9000624081F83C200121401EE970DBD1ECE755
:103CA0000220EAE770B50546E87903280FD1A96834
:103CB000AC6901E03146641E3CB128684E1C3246B6
:103CC000FFF72AFF0100F5D070BD0021E971002047
:103CD00070BD70B504460D46164602E0E069401E10
:103CE000E061E06950B1291A01288CBF8A1C324674
:103CF0002068491CFFF710FF0100EFD070BD2DE9CF
:103D0000F04705468846B8F1010F2E68C24647467F
:103D100038D9306A804535D25FEA02090DD0317852
:103D2000042904BFEB79022B07D04FF0FF3249463C
:103D30003046FFF7F1FE010051D141462846FFF71A
:103D400045FE040035D0012C1CD014F1010F1BD00E
:103D50003078042806D0002241463046FFF7DCFECA
:103D600001003CD1316AF069891E884205D2401CAD
:103D7000F061307940F001003071791CA14205D129
:103D8000274612E002202AE0012028E030780428AB
:103D900009D1A7EB0A0700237A1C51463046FFF7EA
:103DA00046FF01001BD12746BA46306AA04680452F
:103DB000C3D33178042911D1B9F1000F02D1002009
:103DC000E8710BE0E979032908D1A968894522BF88
:103DD000A8694118494524BF0221E9710020BDE8C6
:103DE000F0872DE9FE4F5FEA010907463D6806D1DD
:103DF000AE6916B1286A86420CD301260AE0FFF7A5
:103E0000E5FD012867D910F1010F65D0296A8842C4
:103E100062D34E4628784FF0FF38042840F08D805A
:103E2000296AA6F1020A891E8A4528BF4FF0000AB6
:103E3000CDF800A00024CDF804A00CE05FFA80FCCF
:103E4000BCF1000F22D1B5F80CE001205B1C7345DA
:103E50001CD3009101920098696B4FEAD00BA8899E
:103E6000BBFBF0F0411800F00CFE002840F09A80F7
:103E7000A8890122BBFBF0F100FB11BB009800995F
:103E800000F0070002FA00F05B46019A05EB030C14
:103E9000D5F820E09CF83CC0491C00EA0C0C40001E
:103EA000AEF1020E714502D300210020AB89BCF1B6
:103EB000000F12D1641C012C11D1921C144618BFA2
:103EC00014F1010F71D00123012221462846FFF78A
:103ED000AEFE022807D1012068E00A4600245145C1
:103EE000ACD1002461E0012808BF40465ED0B9F1A2
:103EF000000F02D10221F97142E0FB79621E022B10
:103F000006D1B2423CD0B9680323FB71761ABE6178
:103F10004A45F96905D1002914BF491C0221F961FC
:103F20002EE009B90120F861224649463846FFF7DC
:103F3000D0FEA8BB0120F86123E03446296A641C46
:103F40008C4202D30224012E28D921463846FFF79D
:103F50003DFD38B1012818BF10F1010F26D0B44241
:103F6000ECD11BE0424621462846FFF7D5FDB8B903
:103F7000B9F1000F05D0224649462846FFF7CCFD8F
:103F800070B9AC61296AE869891E814224BF401E6C
:103F9000E861287940F00100287106E0002005E082
:103FA000012801D1444600E001242046BDE8FE8FEF
:103FB00030B504461046194625680023246DAA89A9
:103FC00001F078FE6A890023241D01F073FE224669
:103FD00003E0884206D3401A083211680029F8D15C
:103FE000002030BD5168081830BD2DE9F04105466C
:103FF0000F462E68307804280CBF4FF080504FF4E5
:104000000010874231D217F01F0F2ED1AC682F63FA
:1040100064B93078032803DB346B0021E9712CB9D3
:1040200031897809884220D2306B1AE07189B089D1
:1040300000FB01F806E0022C17D3316A8C4214D23F
:10404000A7EB08074745214608D32846FFF7BEFCE3
:10405000044614F1010FEED1012014E03046FFF7C1
:10406000A7FCA863A86B6C6308B902200BE0B189B8
:10407000B7FBF1F201FB12771018A863F01900F1F9
:104080003C01E9630020BDE8F0812DE9F0410C46D8
:104090000646356BB16B3768203561B33878042834
:1040A0000CBF4FF080504FF40010854223D2B889E6
:1040B000B5FBF0F200FB1250002858D1491CB16347
:1040C000716B21B939896809884250D311E07B8925
:1040D0005B1E1A424BD13046FFF778FC8046B8F1A0
:1040E000010F16D918F1010F38D0386A804539D33D
:1040F0001CB90021B163042044E0716B3046FFF726
:1041000070FE5FEA000808BF07203BD0B8F1010F3E
:1041100001D1022036E018F1010F1FD0F07940F0F4
:104120000400F0713846FFF7BCFBB8B9BA8900212A
:1041300007F13C000024FFF708FB00F025F802E03F
:10414000B86B641C401C79898C4209D20122B86387
:10415000FA703846FFF7A5FB0028F1D0012011E0E6
:10416000041BBC63C6F8348000F00EF8B0633563FE
:10417000B889B5FBF0F100FB115507F13C0040197F
:10418000F0630020BDE8F08141463846FFF710BCDF
:10419000F8B504460D4626680021FFF726FF01000A
:1041A0000ED10027A16BFFF7B4FC010008D13278D3
:1041B000E06B042A007808D100060AD500270BE03E
:1041C000042908BF07210846F2BDE52818BF0028CA
:1041D000F4D17F1CAF42F6D001212046FFF755FFF6
:1041E0000100DFD0ECE770B504460D4605F11A007A
:1041F000FFF74CFA21780646032905D105F1140092
:10420000FFF744FA46EA0046304670BD70B50446F2
:104210000D461646B1B205F11A00FFF767FA21788C
:10422000032906D1310C05F11400BDE87040FFF7F9
:104230005DBA70BD024600200B210306C00100EBF1
:10424000536012F8013BC018491EF6D1C0B2704746
:1042500010B5014600204A780023521C0AE04410A1
:1042600004EBC034C85C5B1C201880B202E0022B57
:10427000F5D10423B3EB421FF9D310BD38B5044682
:1042800000250EE001F0F8FD691000F0FF0201EBDF
:10429000C531511889B24D0805EBC13505EB202514
:1042A000ADB234F8020B0100ECD1284632BDF8B5AE
:1042B00005462868A96B4469FFF719FB01004ED138
:1042C000E96B087885284BD120222046FFF735FA84
:1042D000667840F20121761C7601A6F160008842E2
:1042E0003ED200F089F8010039D100F081F80100D8
:1042F00035D1E96B0878C02832D1202204F12000A2
:10430000FFF71BFA94F823000F212C30B0FBF1F1DA
:10431000B6EB411F24D3402700F06EF801001ED1F8
:1043200000F066F801001AD1E96B0878C12817D1AE
:10433000B7F5187F03D22022E019FFF7FEF92037E6
:10434000B742E9D3B7F5187F08D82046FFF780FFBA
:104350000546A01CFFF79AF9854201D10020F2BD65
:104360000220F2BD38B50446086820600A6AA260DF
:104370004D6AE5714A6A00232046120A1202C4E916
:104380000423896AE164FFF730FE010003D120466F
:10439000BDE832408BE732BDF8B5054629684F6964
:1043A0003846FFF755FF0146B81CFFF79FF97C78A8
:1043B000E96C2846641CFFF718FE0CE0E86B20222D
:1043C0003946FFF7BAF929680120641EC8700DD07C
:1043D000203700F011F80646300003D100F008F84D
:1043E0000600EBD030001CBF012E02263046F2BD85
:1043F000A96B2868FFF77BBA0021284645E62DE91E
:10440000F24F82B004462068FF264FF00408009067
:10441000B146A16B002979D00098FFF768FA00280F
:10442000804673D1E76B387830B100990A78042A56
:1044300014D1852873D102E04FF0040869E0206BA5
:10444000E0642046FFF733FF002880465ED10098E5
:1044500041690A7902F03F02A2715CE0F97AE5282D
:1044600001F03F01A17118BF2E2857D021F0200282
:10447000082A0CBF01220022029B9A424ED10F292A
:1044800054D1410606D597F80D9000F0BF00216B7E
:104490000646E164F1B2884204BF7A7B91453DD182
:1044A0000098D0F8108007F11A00FFF7EFF8A8BBCA
:1044B0003D7800F02DF94FF0000B019125F04005FB
:1044C0006D1E4543019810F80B20B818FFF7DEF871
:1044D000BAF1000F07D0FF2D3EBF824628F815A085
:1044E0006D1C04D31AE04FF6FF71884216D10BF110
:1044F000010BBBF10D0FE5D33878410604D5FF2D34
:104500000CD2002028F81500761E08E0B8F1000F44
:1045100001D00020A0634046BDE8FE8FFF2600F0DA
:10452000B3FA002880463FF474AFEFE74FF0FF3551
:10453000F6B20EB1E564EEE73846FFF77BFE814543
:10454000E9D0F7E72DE9FE4F0446002122680092EA
:10455000FFF74BFD070040F0D88001F057FB42D138
:104560000069FFF78BFE054600E00097002120461A
:10457000FFF745FF060034D10098416901F124009E
:10458000FFF784F8A842F1D100984FF0400A4FF0AD
:1045900000084169074691F8239018E01AF01F0FB0
:1045A00008BF0AF1020A78695044FFF76FF801F07A
:1045B00063FC8346386930F8180001F05DFC8345E0
:1045C000D3D1A9F101090AF1020A08F101085FFA41
:1045D00089F00028E2D100973A6932F818000028E3
:1045E000C4D1304692E0FF214FF0FF300191FF250A
:1045F000E064A16B0098FFF77AF9070035D1E66B0C
:10460000307888B3F17AE52801F03F01A17173D0C9
:104610000A072BD50F296FD194F84B104A066FD497
:10462000430606D5717B00F0BF0005460191226B61
:10463000E264E9B2884202BF0198717B884246D1A8
:10464000009A06F11A00D2F810B0FFF71FF8002800
:104650003DD1377800F05CF84FF00008029107F088
:104660003F077F1E474304E004274EE00F2930D167
:10467000D2E7029810F808107018FFF707F8BAF19F
:10468000000F81460ED0FF2F21D201F0F5FB8246AC
:104690003BF817007F1C01F0EFFB824508BFCA46BC
:1046A00004D014E04FF6FF70814510D108F10108E5
:1046B000B8F10D0FDDD331784A0606D5BAF1000FF7
:1046C0001CBF3BF81700002801D16D1E18E0FF2524
:1046D00016E0EDB22DB9019D3046FFF7ABFD8542E6
:1046E00013D094F84B00C10706D4E06B0B2204F101
:1046F0004001FFF72FF840B14FF0FF30FF25E06495
:1047000000F0C2F907003FF474AF3846BDE8FE8FF1
:104710000FF25C310D204FF0010A704700000000DD
:104720002DE9F84F9AB0044694F84B00256810F034
:10473000A00F18BF062040F098814FF0000A01E05A
:104740000AF1010A296931F81A000028F8D12A78FB
:104750006FF01F09042A40F091800AF10E010F202A
:10476000B1FBF0F7BF1C39462046FFF711FD0028CA
:10477000064643D1A068216B7F1E002809FB07195C
:10478000C4F84C903CD0E1794A0739D56889A989A9
:10479000D4E90437484300211A1847EB0103C4E960
:1047A00004232046FFF77EFA0028064626D1616BD7
:1047B0004FF0FF322046FFF78CFA002806461DD145
:1047C000214606A8FFF7CEFD0028064616D16869E7
:1047D000D4E904233830FEF795FF6869D4E904234F
:1047E0002830FEF78FFFE179686941F0010180F818
:1047F000211006A8FFF7D0FD0028064640F03481BE
:104800002C696D694022002101274FF000092846DC
:10481000B846FEF79AFF8520C0212870402685F80B
:104820002010C1200021A855761CA955761CB8F18E
:10483000000F1FBF5FFA89F034F81080B8F1000F45
:1048400009F101094146A819FEF750FFB61C16F000
:104850001F0FECD15FFA89F17F1C34F8110000289A
:10486000DFD185F8239020466F70FFF707FD0146E2
:1048700005F12400FEF73AFF0020F6E00C2204F1D7
:10488000400101F0C9F99DF81300C1075DD5402230
:10489000012784F84B202E690B2202A904F1400065
:1048A000BB46FEF74AFFBBF1060F14D310E036F803
:1048B000021B102001F00103490803EB4B0B5FEAD8
:1048C000CB3344BF8BF4883282F0210B401EF1D1F0
:1048D00030880028EBD10721584600F00F02303213
:1048E0003A2AA8BFD21D0DF80120491E0009F4D1B3
:1048F0007E2004F140020DF80100002000E0401C81
:10490000884202D2135C202BF9D10246501C0729A1
:104910009ABF1DF80130491C2023072804F14006E6
:10492000B354F2D92046FFF70DFE064610B97F1C9E
:10493000642FB0D3642F08BF07209ED0042840F016
:1049400093809DF8130084F84B009DF8131088079E
:1049500006D50AF10C000D22B0FBF2F77F1C00E037
:10496000012739462046FFF713FC0028064663D18D
:104970007F1E019761D0216B204609FB071949462C
:10498000FFF733FB0028064656D104F140004FF6EE
:10499000FF79FFF74FFC8DF8000000F071F8002858
:1049A000064649D1D4F83C8028699DF8001005904E
:1049B000019F002088F80D100F2288F80C000021BC
:1049C00088F80B2008F11A00FEF790FEFEB200BF37
:1049D00027A1761E0D2046434FF0000A069101E004
:1049E000CB4503D0059830F816B0761C069859468A
:1049F00010F80A2008EB0200FEF778FEBBF1000F6A
:104A000008BFCB460AF1010ABAF10C0FE8D9CB4531
:104A10001DBF059931F81600002847F0400788F8B7
:104A200000700121E97000F02FF8064620B90199C5
:104A3000491E0191B1D100E0B6B900F021F8064657
:104A400090B9E06B20220021FEF77FFEE06B0B2285
:104A500004F14001FEF771FE94F84B00E16B012276
:104A600000F018000873EA7030461BB0BDE8F08F04
:104A700001030507090E10121416181C1E00000071
:104A8000A16B2846FEF733BF00212046FFF7FDBA91
:104A90002DE9F14F86B003680293009102E000997E
:104AA0004A1C0092009800782F2818BF5C28F6D086
:104AB00006990020002288600698C2610699009835
:104AC00001F1400201920378202B32D2019C802216
:104AD0000021E272069807B0BDE8F04FFFF785BAF3
:104AE00007B0BDE8F08F069988680862069BDA79FE
:104AF000D3E90401000A42EA0020586201980699AD
:104B0000C2688A620298426900F050FD0699886086
:104B100002984269069892F8211001F00201C171D1
:104B200002994A6902F13800FEF7BEFD069BC3E90F
:104B300004010698002400250FF2F419009F016873
:104B40000E69785D6D1C20281DDB2F2818BF5C289E
:104B500014D0FF2C34D2012101F06EF95FEA000875
:104B60002ED0B8F1800F04DA41464846FEF7FEFD2C
:104B700030BB26F81480641CE3E76D1C795D2F2997
:104B800018BF5C29F9D0791920280091ACBF4FF0EB
:104B9000000B4FF0040B00E0641EB51E2CB135F87D
:104BA0001400202818BF2E28F6D0002026F8140064
:104BB00034B101980B222021FEF7C7FD002002E04E
:104BC00006208DE7401C36F81010202918BF2E292A
:104BD000F8D008B14BF0030B35F814102E2901D092
:104BE000641EF9D1DFF88439049600270825039361
:104BF000A2468146002600E08B46049830F8194012
:104C000009F10109002C45D0202C4BF00301F3D011
:104C10002E2C01D1D145EFD1AF422DD2D1452BD091
:104C2000802C13DB0021204601F006F94BF0020B2B
:104C300030B95F244BF0030B0198C4557F1CDCE7AF
:104C40000399014411F8804C002CF2D04FEA040182
:104C50003AA0FEF78BFD0028EBD1A4F141001A2801
:104C600038BF46F00206E7D3A4F161011A29E3D266
:104C700046F00106203CDFE70B2D0AD0D14518BFD6
:104C80008B46CA4521BFD14608270B25B600B4D2B2
:104C900000E08B4601990A78E52A04BF05230B70D2
:104CA000082D08BFB60006F00C000C281ABF06F04D
:104CB000030103294BF0020B5FEA8B700BD406F063
:104CC0000301012908BF4BF0100B06F00C06042E5F
:104CD00008BF4BF0080B019880F80BB00698FFF75F
:104CE00031FC01990200C97A05D0042802D1490794
:104CF00000D40520F4E64A07FCD406988179CA0658
:104D0000F7D50298017804293FF4EDAE0299069A8E
:104D1000029B8989106BB0FBF1F201FB1200184471
:104D200000F13C011846FFF75EFA0699886000E73B
:104D3000222A3A3C3E3F7C7F000000002B2C3B3D6A
:104D40005B5D000002464FF0FF301168002900D182
:104D5000704710B50B4600E05B1C1C78202C01D37B
:104D60003A2CF9D13A2C0CD111F8014B303C0A2CD9
:104D700008D2994206D1022C04D2591C2046116057
:104D800010BD002010BD38B5044600224FF0FF339F
:104D9000E270A363FEF7ABFD08B1042032BD04F25C
:104DA0003A20FEF773FC4AF65521884201D00320D1
:104DB00032BD04F13C052878E92804D0EB2804BF73
:104DC000A878902813D104F17200FEF762FC20F05D
:104DD0007F40DFF89C17884207D004F18E00FEF771
:104DE00058FCDFF89027904201D1002032BD0B2201
:104DF000DFF884172846FEF7ADFC08B9012032BD64
:104E0000022032BD2DE9F84F0F4684B0002115462F
:104E10003960FFF797FF060048BF0B2007D4DFF883
:104E20005CB70BF1040050F826400CB90C20BAE135
:104E30003C60207805F0FE0548B1607800F0FCFE8B
:104E4000C10704D4002D01D040070DD4AAE10021F0
:104E500021706670607800F0F8FEC10748BF03203B
:104E600003D41DB1400701D50A209CE1607804F10C
:104E70000C02022100F010FF002806D1A08900F0EA
:104E8000CEFE80F0A380431E184240F09F80002198
:104E900020460026FFF777FF022820D104EB0611F9
:104EA00001F5FD71087918B101F10800FEF7F1FB79
:104EB0004DF82600761C042EF0D34FF000095DF863
:104EC000296026B131462046FFF75DFF00E0032050
:104ED000012804DD09F10109B9F1040FEFD3042819
:104EE00074D0012820DC4FF0FF3940F08C80274639
:104EF0000B2107F13C02505C10B9491C4029FAD340
:104F00004029C0F00D8107F1A400FEF7BFFBB0F50A
:104F1000807F09D107F1A80ABA899AF900004FF0F9
:104F2000010808FA00F0904240F0FA8007F184008E
:104F3000FEF7BAFB0023841941EB0305454519D25E
:104F400007F19000FEF7A5FB78629AF802000128AD
:104F5000B87070D19AF9011008FA01F07881788957
:104F600000286ED007F19800FEF793FB8046DFF82B
:104F70001006804580F0D48008F1020107F194000A
:104F80003962BE62FEF785FB8019786307F18C00F9
:104F9000FEF77FFB86190021FE627A89786B002379
:104FA00002FB08F282184B419D4275D301D894420E
:104FB00072D307F19C00FEF76CFB38630146FFF7E4
:104FC000E4F801463846FEF792FC08B10120EAE019
:104FD000002500E02035B88985420AD207F13C015E
:104FE0004A5D812AF6D178195030FEF752FB02282B
:104FF000F0D13C46A089854223D0C4F81C900425FA
:10500000C4F81890C4E004F14700FEF73FFBA18903
:10501000884210D104F15200FEF738FB18B904F1B0
:105020006000FEF736FB606204F14901CA78A270A5
:10503000012A18BF022A73D1504380460878010024
:1050400060816DD0421E10426AD104F14D00FEF71E
:105050001DFBA1892081490990FBF1F201FB12009F
:1050600000285DD104F14F00FEF710FB050004D1CC
:1050700004F15C00FEF70DFB054604F14A00FEF763
:1050800005FB00284CD0A189238908EB00024F09B9
:1050900093FBF7F18A18954242D36389AD1AB5FBA9
:1050A000F3F100293CD003254FF6F673994238BF3F
:1050B000022540F6F673994238BF0125891C8019F4
:1050C0009219032D2162A662E062626310D104F19D
:1050D0006600FEF7DBFA002804BF208900281FD1F4
:1050E00004F16800FEF7D5FA2063206A80000FE023
:1050F0002089A8B1E16A206A022D8844C4F8308072
:105100000FBF400000EB400100F0010000EB510038
:10511000A1894A1E1018B0FBF1F0616A814201D2E8
:105120000D2040E08020032DC4F81C90C4F8189096
:1051300020712DD104F16C00FEF7A8FA012827D1C7
:10514000711C2046FEF7D3FB10BB207104F23A20FD
:10515000FEF79CFA4AF65521884219D104F13C0029
:10516000FEF797FADFF81C24904211D104F508707D
:10517000FEF78FFADFF81014884209D104F50970A0
:10518000FEF787FAE06104F50A70FEF782FAA06183
:105190002570BBF8005020466D1CE580FEF774FBBF
:1051A000ABF80050002005B0BDE8F08F70B50446A4
:1051B00009260D46002C1CBF216800290DD0087857
:1051C00058B1A288CB889A4207D1487800F034FDC4
:1051D000C10702D40026206800E000202860304685
:1051E00070BD73B582B0154600916846FFF7AAFD01
:1051F000002848BF0B201FD4DFF8801301EB800686
:10520000746824B12046FEF73FFB0021217002980C
:1052100010B90021716008E0029A00201070029914
:105220007160029808B1012D01D0002004E0002235
:1052300002A903A8FFF7E6FD04B070BD2DE9F24F07
:10524000ADF5976D070008BF092000F08A8102F0D4
:105250003F02144600F0D1FC060020D10098AEA910
:1052600002900161009916A8486100F091F90600CA
:105270000DD19DF85300010648BF062607D414F04F
:10528000FE0118BF012102A8FEF779FA064614F0C4
:105290001C0F00F0E180300000F09E80042E40F0F2
:1052A0005D81BA49086800281EBF086900281226D7
:1052B00002D100F0A7FC0646300044F008045BD1A0
:1052C00021075FD500F01EFE00F09FFC40F08E80AD
:1052D00038600098416901F13400FEF7DAF900F016
:1052E0005CF9C7E9040100984169002091F8212088
:1052F000F861294602F00202FA71009A536903F13B
:105300000800FEF7F7F9009900204A692946107550
:105310000098436903F10C00FEF7ECF900990020B6
:105320004A695075009920204A690021107100983F
:10533000426902F13400FEF7DDF9009800220023F3
:1053400000F0DFFA00980022002300F0D5FA00995F
:1053500001204A6982F8210002A8FFF71DF8060023
:105360000AD1B96851B100223846FEF7C8FC06469A
:10537000B8680099401E8861300036D1200748BFC8
:1053800044F04004009807F13005816BA961119841
:10539000E86114F0FE0118BF012102A8FEF71CFA13
:1053A000002867D0F86200F031FC67D1049A3A62B5
:1053B0009DF80F20DDE90601000A42EA002078622C
:1053C0001598B86200F0F0F800F0E7F8C7E90401BA
:1053D00000F020FBFA715EE09DF80E0010F0110F56
:1053E00046D161077FF56CAF0826B7E011982946D2
:1053F0000E30FEF77FF9119829461630FEF77AF93C
:1054000011982021C172119D00982946FEF7EBFEEC
:105410008046009800222946FEF7F8FE11980021E8
:105420001C30FEF767F900980121B8F1000FC17038
:10543000A4D00099002202A88D6B4146FEF75FFCC4
:10544000060099D100982946FEF751FA06460098C1
:10545000A8F1010181618FE730008DD19DF80E0028
:10546000C10648BF042679D4A20787D5C00785D5D1
:10547000072673E000210226F9626FE0DDF8448020
:105480004146FEF7B0FEB86008F11C00FEF701F9D6
:105490000021C7E904010020286200993960009AC0
:1054A00000218B46D0884FF48052B88007F1540019
:1054B0002C7069706961C5E9021BFEF746F9A00608
:1054C0004ED5D7E90448B8F1000F08BF002C47D0EB
:1054D000C5E9024800984189808900FB01FAB86853
:1054E000C34502D398BFA24507D201463846FEF70E
:1054F0006DFA022814D2022616E081462046C5F82D
:105500001090009B414600F058F8002B08BF002A7D
:1055100026D000984946FEF74BFA68B902261DE0EE
:1055200010F1010F08BF0126B4EB0A0468EB0B0869
:105530003100D5D0286111E0009B814620464146CC
:1055400000F03BF8484402466861009C012307F1E3
:105550005401607800F08CFB10B101260020386007
:1055600030460DF5806D2FB0BDE8F08F2C19010885
:1055700046415400464154332C5C0008300B002057
:10558000FEFFFF7F5252614172724161CC0A0020DE
:10559000DDF8B81402A8FFF77BBAB860009841693B
:1055A00001F13800FEF780B800994A6902F1340031
:1055B000FEF76FB8029B204629469A89002300F027
:1055C00079BB2DE9F84F924684B09B46894600226C
:1055D000804600F02CFA010003D108F13004607815
:1055E000010040F0E0802078820758BF072040F19A
:1055F000DA8000990A78042A44D0D4E902010AEB3F
:10560000000383423ED24FF0FF32A2EB000A39E0A2
:10561000104619462DE06561D4E90201009955460E
:105620008B891F1AB0FBF3F003FB0070824588BF23
:1056300005461A460023D4E9020108F1540600F099
:1056400039FBB0182A464946FEF777F8277847F025
:1056500080072770D4E90201002640197141A9444E
:10566000C4E90201D8E904238B42D1D828BF824281
:10567000CED2C8E90401DBF80000AAEB050A28181D
:10568000CBF80000BAF1000F27D0009A00219089D2
:10569000CDE90201D4E9025600F08CF8002B08BFD6
:1056A000002AB9D100F086F800F07EF821D1002E52
:1056B00008BF002D04D1D8F8080068B9002108E01F
:1056C000206A28B12A4633464046FEF771FC03E0C3
:1056D00021694046FEF785FB00285FD001283ED0B7
:1056E00010F1010F57D02061D8F8081009B9C8F897
:1056F00008002078010607D50098626900F020F9BB
:10570000002848D100F002F921690098FEF750F90D
:1057100028B33D1800988189BAFBF1F61EB3408981
:10572000F119884238BFC61B009F33462A464946B6
:10573000787800F0A3FA70BB6069451BB5420AD2C5
:10574000009908F154008A89554309EB0501FDF7DA
:10575000F4FF00F0DBF800998D8975437AE70221A8
:10576000022061701FE06769AF4212D0D4E90223C2
:10577000D8E904018B4201D828BF8242BFF44BAF65
:10578000009F01232A4608F15401787800F070FA4E
:1057900000283FF440AF0120607004E02178002031
:1057A00041F040012170FEE400994A89521E12EA3C
:1057B0000007704728463146DDE9022300F07ABA37
:1057C000F8B5ADF5976D064600F033F9010010D13C
:1057D00006F1300421784A060BD508060CD500984E
:1057E0006269012306F15401407800F047FA08B1DC
:1057F00001207DE000F08AF800F084FB00F005FA5B
:105800004DD13046FEF74EFA010005D121694FF027
:10581000FF323046FEF75DFA010069D100F001F970
:10582000314642610DF58D60FEF79CFD01005FD1B0
:1058300000984069017941F0200101710099F079E7
:105840004A6940F0010082F821000098B168476978
:1058500007F13400FDF74EFF0098D6E9042300F06D
:1058600050F80098D6E9042300F046F8009829463D
:10587000426902F10C00FDF73DFF009900204A69E2
:10588000002150750098426902F11000FDF732FFC7
:105890000DF58D60FEF780FD010029D121E0A169A1
:1058A000FEF725F8010023D1E769F87A40F02000DF
:1058B000F872B26830683946FEF7A8FCD6E90413DE
:1058C00007F11C00FDF716FF294607F11600FDF74A
:1058D00011FF002107F11200FDF708FF00990120D8
:1058E000C8700098FEF71DF8217801F0BF01217003
:1058F0000DF5806D2FB0F0BD416901F12800FDF775
:1059000001BF416901F13800FDF7FCBE207800F0CD
:105910007F00207070471CB50446FFF751FF01005F
:105920000CD169462046FFF741FC010006D1E06A30
:10593000FDF790FF010004BF0021216016BD029811
:10594000012308F15401407800F098B933B5ADF562
:10595000806D99B0040008BF092057D00022694625
:105960000DF58D60FFF74EFA05004AD1009899A910
:105970002060009A01AB116100984361DDF8681462
:105980002046FFF785F8050037D194F84B00010653
:1059900021D4A279D00632D500990A78042A15D1EB
:1059A000A368E2792362D4E90401000A42EA0020F4
:1059B0006062E06CA062FFF7F7FDA060FFF7EEFD0C
:1059C000C4E9040100F026F8E27104E0E16B0098FC
:1059D000FEF709FCA0600098C1882046A180002144
:1059E000FEF703FB050008D1A06828B1002120467E
:1059F000FDF7F2FE00B91225E062042D01D1052564
:105A000001E0280001D00020206028460DF5806DBF
:105A10001BB030BD0098416991F8212002F00202CC
:105A20007047009999A801AA086100987047CBF8BF
:105A300000206946FFF7BABB2DE9F143ADF5976D3C
:105A4000022200F0DAF80600009A02920DD1009AC4
:105A5000AEA816A9106100984161FFF799FD0600F4
:105A600008BF082600F0C380042840F0C080002151
:105A700002A8FEF7B6F90099054648898989484386
:105A80000021CDE906010DB907260CE0012D08BF64
:105A9000022608D015F1010F08BF012603D0009897
:105AA000FDF7FFFE064600F02DFA8046300050D18B
:105AB00000982946FDF77CFF0746009800F13C0955
:105AC000002182894846FDF740FE00F09FF82AD069
:105AD0000B2220214846FDF738FE2E20102189F8A0
